{
  "contractName": "IDOFactory",
  "abi": [
    {
      "inputs": [
        {
          "internalType": "contract ERC20Burnable",
          "name": "_feeToken",
          "type": "address"
        },
        {
          "internalType": "uint256",
          "name": "_feeAmount",
          "type": "uint256"
        },
        {
          "internalType": "uint256",
          "name": "_burnPercent",
          "type": "uint256"
        }
      ],
      "stateMutability": "nonpayable",
      "type": "constructor"
    },
    {
      "anonymous": false,
      "inputs": [
        {
          "indexed": false,
          "internalType": "uint256",
          "name": "newBurnPercent",
          "type": "uint256"
        },
        {
          "indexed": false,
          "internalType": "uint256",
          "name": "divider",
          "type": "uint256"
        }
      ],
      "name": "BurnPercentUpdated",
      "type": "event"
    },
    {
      "anonymous": false,
      "inputs": [
        {
          "indexed": false,
          "internalType": "uint256",
          "name": "newFeeAmount",
          "type": "uint256"
        }
      ],
      "name": "FeeAmountUpdated",
      "type": "event"
    },
    {
      "anonymous": false,
      "inputs": [
        {
          "indexed": false,
          "internalType": "address",
          "name": "newFeeWallet",
          "type": "address"
        }
      ],
      "name": "FeeWalletUpdated",
      "type": "event"
    },
    {
      "anonymous": false,
      "inputs": [
        {
          "indexed": true,
          "internalType": "address",
          "name": "owner",
          "type": "address"
        },
        {
          "indexed": false,
          "internalType": "address",
          "name": "idoPool",
          "type": "address"
        },
        {
          "indexed": true,
          "internalType": "address",
          "name": "rewardToken",
          "type": "address"
        },
        {
          "indexed": false,
          "internalType": "string",
          "name": "tokenURI",
          "type": "string"
        }
      ],
      "name": "IDOCreated",
      "type": "event"
    },
    {
      "anonymous": false,
      "inputs": [
        {
          "indexed": true,
          "internalType": "address",
          "name": "previousOwner",
          "type": "address"
        },
        {
          "indexed": true,
          "internalType": "address",
          "name": "newOwner",
          "type": "address"
        }
      ],
      "name": "OwnershipTransferred",
      "type": "event"
    },
    {
      "anonymous": false,
      "inputs": [
        {
          "indexed": false,
          "internalType": "address",
          "name": "newFeeToken",
          "type": "address"
        }
      ],
      "name": "TokenFeeUpdated",
      "type": "event"
    },
    {
      "inputs": [],
      "name": "burnPercent",
      "outputs": [
        {
          "internalType": "uint256",
          "name": "",
          "type": "uint256"
        }
      ],
      "stateMutability": "view",
      "type": "function",
      "constant": true
    },
    {
      "inputs": [],
      "name": "divider",
      "outputs": [
        {
          "internalType": "uint256",
          "name": "",
          "type": "uint256"
        }
      ],
      "stateMutability": "view",
      "type": "function",
      "constant": true
    },
    {
      "inputs": [],
      "name": "feeAmount",
      "outputs": [
        {
          "internalType": "uint256",
          "name": "",
          "type": "uint256"
        }
      ],
      "stateMutability": "view",
      "type": "function",
      "constant": true
    },
    {
      "inputs": [],
      "name": "feeToken",
      "outputs": [
        {
          "internalType": "contract ERC20Burnable",
          "name": "",
          "type": "address"
        }
      ],
      "stateMutability": "view",
      "type": "function",
      "constant": true
    },
    {
      "inputs": [],
      "name": "feeWallet",
      "outputs": [
        {
          "internalType": "address",
          "name": "",
          "type": "address"
        }
      ],
      "stateMutability": "view",
      "type": "function",
      "constant": true
    },
    {
      "inputs": [],
      "name": "owner",
      "outputs": [
        {
          "internalType": "address",
          "name": "",
          "type": "address"
        }
      ],
      "stateMutability": "view",
      "type": "function",
      "constant": true
    },
    {
      "inputs": [],
      "name": "renounceOwnership",
      "outputs": [],
      "stateMutability": "nonpayable",
      "type": "function"
    },
    {
      "inputs": [],
      "name": "transferAmount",
      "outputs": [
        {
          "internalType": "uint256",
          "name": "",
          "type": "uint256"
        }
      ],
      "stateMutability": "view",
      "type": "function",
      "constant": true
    },
    {
      "inputs": [
        {
          "internalType": "address",
          "name": "newOwner",
          "type": "address"
        }
      ],
      "name": "transferOwnership",
      "outputs": [],
      "stateMutability": "nonpayable",
      "type": "function"
    },
    {
      "inputs": [],
      "name": "withdrawfeePercentage4",
      "outputs": [
        {
          "internalType": "uint256",
          "name": "",
          "type": "uint256"
        }
      ],
      "stateMutability": "view",
      "type": "function",
      "constant": true
    },
    {
      "inputs": [
        {
          "internalType": "uint256",
          "name": "_fee4",
          "type": "uint256"
        }
      ],
      "name": "setWithdrawFee",
      "outputs": [],
      "stateMutability": "nonpayable",
      "type": "function"
    },
    {
      "inputs": [
        {
          "internalType": "address",
          "name": "_newFeeToken",
          "type": "address"
        }
      ],
      "name": "setFeeToken",
      "outputs": [],
      "stateMutability": "nonpayable",
      "type": "function"
    },
    {
      "inputs": [
        {
          "internalType": "uint256",
          "name": "_newFeeAmount",
          "type": "uint256"
        }
      ],
      "name": "setFeeAmount",
      "outputs": [],
      "stateMutability": "nonpayable",
      "type": "function"
    },
    {
      "inputs": [
        {
          "internalType": "address",
          "name": "_newFeeWallet",
          "type": "address"
        }
      ],
      "name": "setFeeWallet",
      "outputs": [],
      "stateMutability": "nonpayable",
      "type": "function"
    },
    {
      "inputs": [
        {
          "internalType": "uint256",
          "name": "_newBurnPercent",
          "type": "uint256"
        },
        {
          "internalType": "uint256",
          "name": "_newDivider",
          "type": "uint256"
        }
      ],
      "name": "setBurnPercent",
      "outputs": [],
      "stateMutability": "nonpayable",
      "type": "function"
    },
    {
      "inputs": [
        {
          "internalType": "contract ERC20",
          "name": "_rewardToken",
          "type": "address"
        },
        {
          "internalType": "uint256",
          "name": "_tokenRate",
          "type": "uint256"
        },
        {
          "internalType": "uint256",
          "name": "_listingRate",
          "type": "uint256"
        },
        {
          "components": [
            {
              "internalType": "uint256",
              "name": "softCap",
              "type": "uint256"
            },
            {
              "internalType": "uint256",
              "name": "hardCap",
              "type": "uint256"
            },
            {
              "internalType": "uint256",
              "name": "minEthPayment",
              "type": "uint256"
            },
            {
              "internalType": "uint256",
              "name": "maxEthPayment",
              "type": "uint256"
            }
          ],
          "internalType": "struct IDOPool.Capacity",
          "name": "_capacity",
          "type": "tuple"
        },
        {
          "components": [
            {
              "internalType": "uint256",
              "name": "startTimestamp",
              "type": "uint256"
            },
            {
              "internalType": "uint256",
              "name": "finishTimestamp",
              "type": "uint256"
            },
            {
              "internalType": "uint256",
              "name": "unlockTimestamp",
              "type": "uint256"
            }
          ],
          "internalType": "struct IDOPool.Time",
          "name": "_time",
          "type": "tuple"
        },
        {
          "components": [
            {
              "internalType": "address",
              "name": "router",
              "type": "address"
            },
            {
              "internalType": "address",
              "name": "factory",
              "type": "address"
            },
            {
              "internalType": "address",
              "name": "weth",
              "type": "address"
            }
          ],
          "internalType": "struct IDOPool.Uniswap",
          "name": "_uniswap",
          "type": "tuple"
        },
        {
          "components": [
            {
              "internalType": "uint256",
              "name": "lpPercentage",
              "type": "uint256"
            },
            {
              "internalType": "address",
              "name": "lockerFactoryAddress",
              "type": "address"
            }
          ],
          "internalType": "struct IDOPool.LockInfo",
          "name": "_lockInfo",
          "type": "tuple"
        },
        {
          "internalType": "string",
          "name": "_tokenURI",
          "type": "string"
        }
      ],
      "name": "createIDO",
      "outputs": [
        {
          "internalType": "address",
          "name": "",
          "type": "address"
        }
      ],
      "stateMutability": "payable",
      "type": "function",
      "payable": true
    }
  ],
  "bytecode": "0x608060405260326006553480156200001657600080fd5b5060405162003eb338038062003eb3833981016040819052620000399162000121565b620000443362000076565b600180546001600160a01b0319166001600160a01b039490941693909317909255600355600455606460055562000179565b600080546001600160a01b038381166001600160a01b0319831681178455604051919092169283917f8be0079c531659141344cd1fd0a4f28419497f9722a3daafe3b4186f6b6457e09190a35050565b60006001600160a01b0382165b92915050565b6000620000d382620000c6565b620000f181620000d9565b8114620000fd57600080fd5b50565b8051620000d381620000e6565b80620000f1565b8051620000d3816200010d565b6000806000606084860312156200013b576200013b600080fd5b600062000149868662000100565b93505060206200015c8682870162000114565b92505060406200016f8682870162000114565b9150509250925092565b613d2a80620001896000396000f3fe608060405260043610620001075760003560e01c80636b392680116200009557806390d49b9d116200006057806390d49b9d146200029c578063b6ac642a14620002c1578063f25f4b5614620002e6578063f2fde38b146200030857600080fd5b80636b392680146200021a578063715018a6146200023f5780638da5cb5b14620002575780638dc12991146200027757600080fd5b8063378efa3711620000d6578063378efa3714620001a1578063504d27fd14620001b9578063647846a514620001d157806369e15404146200020257600080fd5b806303807ee5146200010c57806312d35967146200013c5780631482c7b7146200016257806315cce224146200017a575b600080fd5b3480156200011957600080fd5b506200012460045481565b60405162000133919062000b63565b60405180910390f35b620001536200014d36600462000e86565b6200032d565b60405162000133919062000f76565b3480156200016f57600080fd5b506200012460065481565b3480156200018757600080fd5b506200019f6200019936600462000f86565b62000593565b005b348015620001ae57600080fd5b506200012460055481565b348015620001c657600080fd5b506200012460075481565b348015620001de57600080fd5b50600154620001f3906001600160a01b031681565b60405162000133919062000fc3565b3480156200020f57600080fd5b506200012460035481565b3480156200022757600080fd5b506200019f6200023936600462000fd3565b62000648565b3480156200024c57600080fd5b506200019f620006ac565b3480156200026457600080fd5b506000546001600160a01b031662000153565b3480156200028457600080fd5b506200019f6200029636600462000ff8565b620006e7565b348015620002a957600080fd5b506200019f620002bb36600462000f86565b62000781565b348015620002ce57600080fd5b506200019f620002e036600462000fd3565b620007fb565b348015620002f357600080fd5b5060025462000153906001600160a01b031681565b3480156200031557600080fd5b506200019f6200032736600462000f86565b6200082d565b600354600090156200041f576000620003626005546200035b6004546003546200089190919063ffffffff16565b90620008a8565b6002546003549192506200039d9133916001600160a01b031690620003889085620008b6565b6001546001600160a01b0316929190620008c4565b600154620003b7906001600160a01b0316333084620008c4565b600154604051630852cd8d60e31b81526001600160a01b03909116906342966c6890620003e990849060040162000b63565b600060405180830381600087803b1580156200040457600080fd5b505af115801562000419573d6000803e3d6000fd5b50505050505b60008989898989898989604051620004379062000b4d565b6200044a9897969594939291906200118a565b604051809103906000f08015801562000467573d6000803e3d6000fd5b5090506200049960648560000151896020015162000486919062001230565b62000492919062001268565b8962000926565b620004a988602001518b62000926565b620004b591906200127f565b60075560405163f2fde38b60e01b81526001600160a01b0382169063f2fde38b90620004e690339060040162000f76565b600060405180830381600087803b1580156200050157600080fd5b505af115801562000516573d6000803e3d6000fd5b50506007546200053792506001600160a01b038d16915033908490620008c4565b896001600160a01b0316336001600160a01b03167ff71c11ab5bd622b01d634c5c9e59846d77ee252871f11645b7b8376ddd4dd3e283866040516200057e92919062001295565b60405180910390a39998505050505050505050565b6000546001600160a01b03163314620005c95760405162461bcd60e51b8152600401620005c090620012ee565b60405180910390fd5b803b63ffffffff16620005f05760405162461bcd60e51b8152600401620005c09062001335565b600180546001600160a01b0319166001600160a01b0383161790556040517f9e892f555b0a5cac6c8cc33c82ebb9308207bd16dfdca9d0289b96d7e4186c8a906200063d90839062000f76565b60405180910390a150565b6000546001600160a01b03163314620006755760405162461bcd60e51b8152600401620005c090620012ee565b60038190556040517fbb128cd9921d003aff00ed910fe24b1655b2bf1f4a2090cc3523f61bdc172316906200063d90839062000b63565b6000546001600160a01b03163314620006d95760405162461bcd60e51b8152600401620005c090620012ee565b620006e5600062000941565b565b6000546001600160a01b03163314620007145760405162461bcd60e51b8152600401620005c090620012ee565b80821115620007375760405162461bcd60e51b8152600401620005c0906200138d565b600482905560058190556040517fb62d69c6ddf4f4bd443dca17ea7405d8018efb872e82e77bb8ef13b5be2f2e9c906200077590849084906200139f565b60405180910390a15050565b6000546001600160a01b03163314620007ae5760405162461bcd60e51b8152600401620005c090620012ee565b600280546001600160a01b0319166001600160a01b0383161790556040517f29acee77dafcfa0143d74a7ea236018f3a6e1fa71e27fc59bbfbc6b8ca8edccd906200063d90839062000f76565b6000546001600160a01b03163314620008285760405162461bcd60e51b8152600401620005c090620012ee565b600655565b6000546001600160a01b031633146200085a5760405162461bcd60e51b8152600401620005c090620012ee565b6001600160a01b038116620008835760405162461bcd60e51b8152600401620005c09062001402565b6200088e8162000941565b50565b60006200089f828462001230565b90505b92915050565b60006200089f828462001268565b60006200089f828462001414565b62000920846323b872dd60e01b858585604051602401620008e8939291906200142a565b60408051601f198184030181529190526020810180516001600160e01b03166001600160e01b03199093169290921790915262000991565b50505050565b60006200089f670de0b6b3a76400006200035b858562000891565b600080546001600160a01b038381166001600160a01b0319831681178455604051919092169283917f8be0079c531659141344cd1fd0a4f28419497f9722a3daafe3b4186f6b6457e09190a35050565b6000620009e8826040518060400160405280602081526020017f5361666545524332303a206c6f772d6c6576656c2063616c6c206661696c6564815250856001600160a01b031662000a2d9092919063ffffffff16565b80519091501562000a28578080602001905181019062000a0991906200146e565b62000a285760405162461bcd60e51b8152600401620005c090620014db565b505050565b606062000a3e848460008562000a48565b90505b9392505050565b60608247101562000a6d5760405162461bcd60e51b8152600401620005c09062001531565b843b62000a8e5760405162461bcd60e51b8152600401620005c09062001578565b600080866001600160a01b0316858760405162000aac9190620015af565b60006040518083038185875af1925050503d806000811462000aeb576040519150601f19603f3d011682016040523d82523d6000602084013e62000af0565b606091505b509150915062000b0282828662000b0f565b925050505b949350505050565b6060831562000b2057508162000a41565b82511562000b315782518084602001fd5b8160405162461bcd60e51b8152600401620005c09190620015bd565b61272480620015d183390190565b805b82525050565b60208101620008a2828462000b5b565b60006001600160a01b038216620008a2565b6000620008a28262000b73565b62000b9d8162000b85565b81146200088e57600080fd5b8035620008a28162000b92565b8062000b9d565b8035620008a28162000bb6565b634e487b7160e01b600052604160045260246000fd5b601f19601f830116810181811067ffffffffffffffff8211171562000c095762000c0962000bca565b6040525050565b600062000c1c60405190565b905062000c2a828262000be0565b919050565b60006080828403121562000c465762000c46600080fd5b62000c52608062000c10565b9050600062000c62848462000bbd565b825250602062000c758484830162000bbd565b602083015250604062000c8b8482850162000bbd565b604083015250606062000ca18482850162000bbd565b60608301525092915050565b60006060828403121562000cc45762000cc4600080fd5b62000cd0606062000c10565b9050600062000ce0848462000bbd565b825250602062000cf38484830162000bbd565b602083015250604062000d098482850162000bbd565b60408301525092915050565b62000b9d8162000b73565b8035620008a28162000d15565b60006060828403121562000d445762000d44600080fd5b62000d50606062000c10565b9050600062000d60848462000d20565b825250602062000d738484830162000d20565b602083015250604062000d098482850162000d20565b60006040828403121562000da05762000da0600080fd5b62000dac604062000c10565b9050600062000dbc848462000bbd565b825250602062000dcf8484830162000d20565b60208301525092915050565b600067ffffffffffffffff82111562000df85762000df862000bca565b601f19601f83011660200192915050565b82818337506000910152565b600062000e2c62000e268462000ddb565b62000c10565b90508281526020810184848401111562000e495762000e49600080fd5b62000e5684828562000e09565b509392505050565b600082601f83011262000e745762000e74600080fd5b813562000b0784826020860162000e15565b600080600080600080600080610200898b03121562000ea85762000ea8600080fd5b600062000eb68b8b62000ba9565b985050602062000ec98b828c0162000bbd565b975050604062000edc8b828c0162000bbd565b965050606062000eef8b828c0162000c2f565b95505060e062000f028b828c0162000cad565b94505061014062000f168b828c0162000d2d565b9350506101a062000f2a8b828c0162000d89565b9250506101e089013567ffffffffffffffff81111562000f4d5762000f4d600080fd5b62000f5b8b828c0162000e5e565b9150509295985092959890939650565b62000b5d8162000b73565b60208101620008a2828462000f6b565b60006020828403121562000f9d5762000f9d600080fd5b600062000b07848462000d20565b6000620008a28262000b85565b62000b5d8162000fab565b60208101620008a2828462000fb8565b60006020828403121562000fea5762000fea600080fd5b600062000b07848462000bbd565b60008060408385031215620010105762001010600080fd5b60006200101e858562000bbd565b9250506020620010318582860162000bbd565b9150509250929050565b805160808301906200104e848262000b5b565b50602082015162001063602085018262000b5b565b50604082015162001078604085018262000b5b565b50606082015162000920606085018262000b5b565b80516060830190620010a0848262000b5b565b506020820151620010b5602085018262000b5b565b50604082015162000920604085018262000b5b565b80516060830190620010dd848262000f6b565b506020820151620010f2602085018262000f6b565b50604082015162000920604085018262000f6b565b805160408301906200111a848262000b5b565b50602082015162000920602085018262000f6b565b60005b838110156200114c57818101518382015260200162001132565b50506000910152565b600062001160825190565b808452602084019350620011798185602086016200112f565b601f01601f19169290920192915050565b61020081016200119b828b62000fb8565b620011aa602083018a62000b5b565b620011b9604083018962000b5b565b620011c860608301886200103b565b620011d760e08301876200108d565b620011e7610140830186620010ca565b620011f76101a083018562001107565b8181036101e08301526200120c818462001155565b9a9950505050505050505050565b634e487b7160e01b600052601160045260246000fd5b8181028082158382048514176200124b576200124b6200121a565b5092915050565b634e487b7160e01b600052601260045260246000fd5b6000826200127a576200127a62001252565b500490565b80820180821115620008a257620008a26200121a565b60408101620012a5828562000f6b565b818103602083015262000a3e818462001155565b60208082527f4f776e61626c653a2063616c6c6572206973206e6f7420746865206f776e6572910190815260005b5060200190565b60208082528101620008a281620012b9565b601a81526000602082017f4e65772061646472657373206973206e6f74206120746f6b656e00000000000081529150620012e7565b60208082528101620008a28162001300565b602681526000602082017f4275726e2070657263656e74206d757374206265206c657373207468616e206481526534bb34b232b960d11b602082015291505b5060400190565b60208082528101620008a28162001347565b60408101620013af828562000b5b565b62000a41602083018462000b5b565b602681526000602082017f4f776e61626c653a206e6577206f776e657220697320746865207a65726f206181526564647265737360d01b6020820152915062001386565b60208082528101620008a281620013be565b81810381811115620008a257620008a26200121a565b606081016200143a828662000f6b565b62001449602083018562000f6b565b62000b07604083018462000b5b565b80151562000b9d565b8051620008a28162001458565b600060208284031215620014855762001485600080fd5b600062000b07848462001461565b602a81526000602082017f5361666545524332303a204552433230206f7065726174696f6e20646964206e8152691bdd081cdd58d8d9595960b21b6020820152915062001386565b60208082528101620008a28162001493565b602681526000602082017f416464726573733a20696e73756666696369656e742062616c616e636520666f8152651c8818d85b1b60d21b6020820152915062001386565b60208082528101620008a281620014ed565b601d81526000602082017f416464726573733a2063616c6c20746f206e6f6e2d636f6e747261637400000081529150620012e7565b60208082528101620008a28162001543565b600062001595825190565b620015a58185602086016200112f565b9290920192915050565b600062000a4182846200158a565b602080825281016200089f81846200115556fe6080604052601880546001600160b01b03191675d78958ef33f82cfad358f2a855a06c059542598f00001790553480156200003957600080fd5b5060405162002724380380620027248339810160408190526200005c91620005c3565b62000067336200020d565b600180819055506200009487878760000151886020015189604001518a606001516200025d60201b60201c565b6200016188896001600160a01b031663313ce5676040518163ffffffff1660e01b8152600401602060405180830381865afa158015620000d8573d6000803e3d6000fd5b505050506040513d601f19601f82011682018060405250810190620000fe9190620006be565b60ff1685600280546001600160a01b039485166001600160a01b0319918216179091556003929092558051600480549185169184169190911790556020810151600580549185169184169190911790556040015160068054919093169116179055565b8151600e55602080830151600f80546001600160a01b0319166001600160a01b03909216919091179055840151845110620001b95760405162461bcd60e51b8152600401620001b09062000735565b60405180910390fd5b42846020015111620001df5760405162461bcd60e51b8152600401620001b09062000795565b835160075560208401516008556040840151600955620001ff816200027a565b505050505050505062000970565b600080546001600160a01b038381166001600160a01b0319831681178455604051919092169283917f8be0079c531659141344cd1fd0a4f28419497f9722a3daafe3b4186f6b6457e09190a35050565b601095909555601193909355600a91909155600b55600c55600d55565b6017620002888282620008a0565b5050565b60006001600160a01b0382165b92915050565b600062000299826200028c565b620002b7816200029f565b8114620002c357600080fd5b50565b80516200029981620002ac565b80620002b7565b80516200029981620002d3565b634e487b7160e01b600052604160045260246000fd5b601f19601f83011681018181106001600160401b0382111715620003255762000325620002e7565b6040525050565b60006200033860405190565b9050620003468282620002fd565b919050565b600060808284031215620003625762000362600080fd5b6200036e60806200032c565b905060006200037e8484620002da565b82525060206200039184848301620002da565b6020830152506040620003a784828501620002da565b6040830152506060620003bd84828501620002da565b60608301525092915050565b600060608284031215620003e057620003e0600080fd5b620003ec60606200032c565b90506000620003fc8484620002da565b82525060206200040f84848301620002da565b60208301525060406200042584828501620002da565b60408301525092915050565b620002b7816200028c565b8051620002998162000431565b600060608284031215620004605762000460600080fd5b6200046c60606200032c565b905060006200047c84846200043c565b82525060206200048f848483016200043c565b602083015250604062000425848285016200043c565b600060408284031215620004bc57620004bc600080fd5b620004c860406200032c565b90506000620004d88484620002da565b8252506020620004eb848483016200043c565b60208301525092915050565b60006001600160401b03821115620005135762000513620002e7565b601f19601f83011660200192915050565b60005b838110156200054157818101518382015260200162000527565b50506000910152565b6000620005616200055b84620004f7565b6200032c565b9050828152602081018484840111156200057e576200057e600080fd5b6200058b84828562000524565b509392505050565b600082601f830112620005a957620005a9600080fd5b8151620005bb8482602086016200054a565b949350505050565b600080600080600080600080610200898b031215620005e557620005e5600080fd5b6000620005f38b8b620002c6565b9850506020620006068b828c01620002da565b9750506040620006198b828c01620002da565b96505060606200062c8b828c016200034b565b95505060e06200063f8b828c01620003c9565b945050610140620006538b828c0162000449565b9350506101a0620006678b828c01620004a5565b9250506101e08901516001600160401b03811115620006895762000689600080fd5b620006978b828c0162000593565b9150509295985092959890939650565b60ff8116620002b7565b80516200029981620006a7565b600060208284031215620006d557620006d5600080fd5b6000620005bb8484620006b1565b603281526000602082017f53746172742074696d657374616d70206d757374206265206c6573732074686181527106e2066696e6973682074696d657374616d760741b602082015291505b5060400190565b602080825281016200029981620006e3565b603081526000602082017f46696e6973682074696d657374616d70206d757374206265206d6f726520746881526f616e2063757272656e7420626c6f636b60801b602082015291506200072e565b60208082528101620002998162000747565b634e487b7160e01b600052602260045260246000fd5b600281046001821680620007d257607f821691505b602082108103620007e757620007e7620007a7565b50919050565b600062000299620007fb8381565b90565b6200080983620007ed565b81546008840282811b60001990911b908116901990911617825550505050565b600062000838818484620007fe565b505050565b8181101562000288576200085360008262000829565b6001016200083d565b601f82111562000838576000818152602090206020601f85010481016020851015620008855750805b620008996020601f8601048301826200083d565b5050505050565b81516001600160401b03811115620008bc57620008bc620002e7565b620008c88254620007bd565b620008d58282856200085c565b6020601f8311600181146200090c5760008415620008f35750858201515b600019600886021c198116600286021786555062000968565b600085815260208120601f198616915b828110156200093e57888501518255602094850194600190920191016200091c565b868310156200095b5784890151600019601f89166008021c191682555b6001600288020188555050505b505050505050565b611da480620009806000396000f3fe6080604052600436106101f95760003560e01c8063715018a61161010d578063db762bc9116100a0578063f2fde38b1161006f578063f2fde38b1461056a578063f5ae497a1461058a578063f7c618c1146105aa578063f84b903e146105d7578063fd46a171146105f157600080fd5b8063db762bc9146104f0578063ddeae03314610522578063e086e5ec14610542578063e0df5b6f1461054a57600080fd5b8063a20ecbbb116100dc578063a20ecbbb1461049b578063c1f1b1b5146104b1578063c6a0e27d146104c6578063db2e21bc146104db57600080fd5b8063715018a61461042d57806382b2e257146104425780638da5cb5b1461045757806391cca3db1461047557600080fd5b806338df7677116101905780634e71d92d1161015f5780634e71d92d146103a5578063586360ce146103ba5780635cfc1a51146103d057806362bea93f14610403578063672729991461041857600080fd5b806338df76771461032c5780633c130d90146103585780633f94d9081461037a5780634b1a4c0c1461038f57600080fd5b80632681f7e4116101cc5780632681f7e414610297578063313ce567146102d357806331711884146102e95780633675f29b146102ff57600080fd5b806312065fe0146101fe57806316ada547146102235780631959a002146102515780631b9265b81461028d575b600080fd5b34801561020a57600080fd5b50475b60405161021a9190611290565b60405180910390f35b34801561022f57600080fd5b5060075460085460095461024292919083565b60405161021a9392919061129e565b34801561025d57600080fd5b5061024261026c3660046112f6565b60196020526000908152604090208054600182015460029092015490919083565b610295610607565b005b3480156102a357600080fd5b506004546005546006546102c4926001600160a01b03908116928116911683565b60405161021a93929190611320565b3480156102df57600080fd5b5061020d60035481565b3480156102f557600080fd5b5061020d60105481565b34801561030b57600080fd5b5060135461031f906001600160a01b031681565b60405161021a9190611348565b34801561033857600080fd5b5060185461034b90610100900460ff1681565b60405161021a919061135e565b34801561036457600080fd5b5061036d6107a9565b60405161021a91906113c2565b34801561038657600080fd5b50610295610837565b34801561039b57600080fd5b5061020d60145481565b3480156103b157600080fd5b506102956108d1565b3480156103c657600080fd5b5061020d60155481565b3480156103dc57600080fd5b50600a54600b54600c54600d546103f39392919084565b60405161021a94939291906113d3565b34801561040f57600080fd5b5061020d6108dc565b34801561042457600080fd5b5061029561097b565b34801561043957600080fd5b50610295610a65565b34801561044e57600080fd5b5061020d610a99565b34801561046357600080fd5b506000546001600160a01b031661031f565b34801561048157600080fd5b5060185461031f906201000090046001600160a01b031681565b3480156104a757600080fd5b5061020d60115481565b3480156104bd57600080fd5b5061031f610b10565b3480156104d257600080fd5b50610295610b8e565b3480156104e757600080fd5b50610295610c80565b3480156104fc57600080fd5b50600e54600f5461051491906001600160a01b031682565b60405161021a929190611411565b34801561052e57600080fd5b5061029561053d3660046112f6565b610d59565b610295610d62565b34801561055657600080fd5b50610295610565366004611527565b610e7d565b34801561057657600080fd5b506102956105853660046112f6565b610e89565b34801561059657600080fd5b5060125461031f906001600160a01b031681565b3480156105b657600080fd5b506002546105ca906001600160a01b031681565b60405161021a91906115a4565b3480156105e357600080fd5b5060185461034b9060ff1681565b3480156105fd57600080fd5b5061020d60165481565b600c543410156106325760405162461bcd60e51b8152600401610629906115e0565b60405180910390fd5b600d543411156106545760405162461bcd60e51b81526004016106299061161b565b6007544210156106765760405162461bcd60e51b81526004016106299061164d565b60085442106106975760405162461bcd60e51b815260040161062990611679565b60006106a234610ee2565b600b54601654919250906106b69034610f11565b11156106d45760405162461bcd60e51b8152600401610629906116aa565b336000908152601960205260409020600d5460028201546106f59034610f11565b11156107135760405162461bcd60e51b81526004016106299061161b565b6016546107209034610f11565b6016556014546107309083610f11565b60145560028101546107429034610f11565b600282015560018101546107569083610f11565b600182015580546107679083610f11565b815560405133907fb55d4ca2fc644ca3f8cdc9c907826e24acd68d2b2d4d73f48b8f2378dbaedf5d9061079d90349086906116ba565b60405180910390a25050565b601780546107b6906116eb565b80601f01602080910402602001604051908101604052809291908181526020018280546107e2906116eb565b801561082f5780601f106108045761010080835404028352916020019161082f565b820191906000526020600020905b81548152906001019060200180831161081257829003601f168201915b505050505081565b60085442116108585760405162461bcd60e51b815260040161062990611740565b600a546016541061087b5760405162461bcd60e51b815260040161062990611775565b6000546001600160a01b031633146108a55760405162461bcd60e51b8152600401610629906117b7565b60006108af610a99565b905080156108ce576002546108ce906001600160a01b03163383610f24565b50565b6108da33610f7a565b565b6002546040516370a0823160e01b815260009182916001600160a01b03909116906370a0823190610911903090600401611348565b602060405180830381865afa15801561092e573d6000803e3d6000fd5b505050506040513d601f19601f8201168201806040525081019061095291906117d8565b905061097560145461096f60155484610f1190919063ffffffff16565b9061107c565b91505090565b600854421161099c5760405162461bcd60e51b815260040161062990611740565b600a54601654106109bf5760405162461bcd60e51b815260040161062990611775565b33600090815260196020526040902060028101548015610a615760008083556002830181905560018301819055604051339083906109fc906117f9565b60006040518083038185875af1925050503d8060008114610a39576040519150601f19603f3d011682016040523d82523d6000602084013e610a3e565b606091505b5050905080610a5f5760405162461bcd60e51b81526004016106299061182b565b505b5050565b6000546001600160a01b03163314610a8f5760405162461bcd60e51b8152600401610629906117b7565b6108da6000611088565b6002546040516370a0823160e01b81526000916001600160a01b0316906370a0823190610aca903090600401611348565b602060405180830381865afa158015610ae7573d6000803e3d6000fd5b505050506040513d601f19601f82011682018060405250810190610b0b91906117d8565b905090565b60055460025460065460405163e6a4390560e01b81526000936001600160a01b039081169363e6a4390593610b4d9391831692169060040161183b565b602060405180830381865afa158015610b6a573d6000803e3d6000fd5b505050506040513d601f19601f82011682018060405250810190610b0b9190611854565b6000546001600160a01b03163314610bb85760405162461bcd60e51b8152600401610629906117b7565b60185460ff16610bda5760405162461bcd60e51b81526004016106299061189b565b6002546040516370a0823160e01b81526000916001600160a01b0316906370a0823190610c0b903090600401611348565b602060405180830381865afa158015610c28573d6000803e3d6000fd5b505050506040513d601f19601f82011682018060405250810190610c4c91906117d8565b90506108ce33610c6d60145461096f60155486610f1190919063ffffffff16565b6002546001600160a01b03169190610f24565b6018546201000090046001600160a01b03163314610cb05760405162461bcd60e51b8152600401610629906118d1565b600854610cbe9060006118f7565b421015610cdd5760405162461bcd60e51b815260040161062990611936565b6000336001600160a01b031647604051610cf6906117f9565b60006040518083038185875af1925050503d8060008114610d33576040519150601f19603f3d011682016040523d82523d6000602084013e610d38565b606091505b50509050806108ce5760405162461bcd60e51b81526004016106299061182b565b6108ce81610f7a565b6000546001600160a01b03163314610d8c5760405162461bcd60e51b8152600401610629906117b7565b600a546016541015610db05760405162461bcd60e51b81526004016106299061196f565b6008544211610dd15760405162461bcd60e51b815260040161062990611740565b60185460ff1615610df45760405162461bcd60e51b8152600401610629906119a9565b604051479060009033908390610e09906117f9565b60006040518083038185875af1925050503d8060008114610e46576040519150601f19603f3d011682016040523d82523d6000602084013e610e4b565b606091505b5050905080610e6c5760405162461bcd60e51b81526004016106299061182b565b50506018805460ff19166001179055565b6017610a618282611a56565b6000546001600160a01b03163314610eb35760405162461bcd60e51b8152600401610629906117b7565b6001600160a01b038116610ed95760405162461bcd60e51b815260040161062990611b60565b6108ce81611088565b6000610f0b670de0b6b3a7640000610f05601054856110d890919063ffffffff16565b906110e4565b92915050565b6000610f1d82846118f7565b9392505050565b610a5f8363a9059cbb60e01b8484604051602401610f43929190611b70565b60408051601f198184030181529190526020810180516001600160e01b03166001600160e01b0319909316929092179091526110f0565b600260015403610f9c5760405162461bcd60e51b815260040161062990611bb2565b60026001556008544211610fc25760405162461bcd60e51b815260040161062990611740565b600a546016541015610fe65760405162461bcd60e51b81526004016106299061196f565b6001600160a01b03811660009081526019602052604090208054801561107357600082556015546110179082610f11565b601555600254611031906001600160a01b03168483610f24565b826001600160a01b03167f6352c5382c4a4578e712449ca65e83cdb392d045dfcf1cad9615189db2da244b8260405161106a9190611290565b60405180910390a25b50506001805550565b6000610f1d8284611bc2565b600080546001600160a01b038381166001600160a01b0319831681178455604051919092169283917f8be0079c531659141344cd1fd0a4f28419497f9722a3daafe3b4186f6b6457e09190a35050565b6000610f1d8284611bd5565b6000610f1d8284611c0a565b6000611145826040518060400160405280602081526020017f5361666545524332303a206c6f772d6c6576656c2063616c6c206661696c6564815250856001600160a01b031661117f9092919063ffffffff16565b805190915015610a5f57808060200190518101906111639190611c31565b610a5f5760405162461bcd60e51b815260040161062990611c99565b606061118e8484600085611196565b949350505050565b6060824710156111b85760405162461bcd60e51b815260040161062990611cec565b843b6111d65760405162461bcd60e51b815260040161062990611d30565b600080866001600160a01b031685876040516111f29190611d62565b60006040518083038185875af1925050503d806000811461122f576040519150601f19603f3d011682016040523d82523d6000602084013e611234565b606091505b509150915061124482828661124f565b979650505050505050565b6060831561125e575081610f1d565b82511561126e5782518084602001fd5b8160405162461bcd60e51b815260040161062991906113c2565b805b82525050565b60208101610f0b8284611288565b606081016112ac8286611288565b6112b96020830185611288565b61118e6040830184611288565b60006001600160a01b038216610f0b565b6112e0816112c6565b81146108ce57600080fd5b8035610f0b816112d7565b60006020828403121561130b5761130b600080fd5b600061118e84846112eb565b61128a816112c6565b6060810161132e8286611317565b61133b6020830185611317565b61118e6040830184611317565b60208101610f0b8284611317565b80151561128a565b60208101610f0b8284611356565b60005b8381101561138757818101518382015260200161136f565b50506000910152565b600061139a825190565b8084526020840193506113b181856020860161136c565b601f01601f19169290920192915050565b60208082528101610f1d8184611390565b608081016113e18287611288565b6113ee6020830186611288565b6113fb6040830185611288565b6114086060830184611288565b95945050505050565b6040810161141f8285611288565b610f1d6020830184611317565b634e487b7160e01b600052604160045260246000fd5b601f19601f830116810181811067ffffffffffffffff821117156114685761146861142c565b6040525050565b600061147a60405190565b90506114868282611442565b919050565b600067ffffffffffffffff8211156114a5576114a561142c565b601f19601f83011660200192915050565b82818337506000910152565b60006114d56114d08461148b565b61146f565b9050828152602081018484840111156114f0576114f0600080fd5b6114fb8482856114b6565b509392505050565b600082601f83011261151757611517600080fd5b813561118e8482602086016114c2565b60006020828403121561153c5761153c600080fd5b813567ffffffffffffffff81111561155657611556600080fd5b61118e84828501611503565b6000610f0b6001600160a01b038316611579565b90565b6001600160a01b031690565b6000610f0b82611562565b6000610f0b82611585565b61128a81611590565b60208101610f0b828461159b565b601481526000602082017313195cdcc81d1a195b881b5a5b88185b5bdd5b9d60621b815291505b5060200190565b60208082528101610f0b816115b2565b6014815260006020820173135bdc99481d1a195b881b585e08185b5bdd5b9d60621b815291506115d9565b60208082528101610f0b816115f0565b600b81526000602082016a139bdd081cdd185c9d195960aa1b815291506115d9565b60208082528101610f0b8161162b565b6005815260006020820164115b99195960da1b815291506115d9565b60208082528101610f0b8161165d565b600a81526000602082016913dd995c999a5b1b195960b21b815291506115d9565b60208082528101610f0b81611689565b604081016116c88285611288565b610f1d6020830184611288565b634e487b7160e01b600052602260045260246000fd5b6002810460018216806116ff57607f821691505b602082108103611711576117116116d5565b50919050565b6012815260006020820171092889e40d0c2e640dcdee840ccd2dcd2e6d60731b815291506115d9565b60208082528101610f0b81611717565b600e81526000602082016d0526561636820736f6674206361760941b815291506115d9565b60208082528101610f0b81611750565b60208082527f4f776e61626c653a2063616c6c6572206973206e6f7420746865206f776e6572910190815260006115d9565b60208082528101610f0b81611785565b806112e0565b8051610f0b816117c7565b6000602082840312156117ed576117ed600080fd5b600061118e84846117cd565b6000610f0b82611576565b601081526000602082016f2a3930b739b332b9103330b4b632b21760811b815291506115d9565b60208082528101610f0b81611804565b6040810161141f8285611317565b8051610f0b816112d7565b60006020828403121561186957611869600080fd5b600061118e8484611849565b600f81526000602082016e1b9bdd08191a5cdd1c9a589d5d1959608a1b815291506115d9565b60208082528101610f0b81611875565b600f81526000602082016e2cb7ba9030b932903737ba103232bb60891b815291506115d9565b60208082528101610f0b816118ab565b634e487b7160e01b600052601160045260246000fd5b80820180821115610f0b57610f0b6118e1565b60158152600060208201744e6f74206c6f6e6720656e6f7567682074696d652160581b815291506115d9565b60208082528101610f0b8161190a565b601281526000602082017106e6f7420726561636820736f6674206361760741b815291506115d9565b60208082528101610f0b81611946565b6013815260006020820172446973747269627574656420616c726561647960681b815291506115d9565b60208082528101610f0b8161197f565b6000610f0b6115768381565b6119ce836119b9565b81546008840282811b60001990911b908116901990911617825550505050565b6000610a5f8184846119c5565b81811015610a6157611a0e6000826119ee565b6001016119fb565b601f821115610a5f576000818152602090206020601f85010481016020851015611a3d5750805b611a4f6020601f8601048301826119fb565b5050505050565b815167ffffffffffffffff811115611a7057611a7061142c565b611a7a82546116eb565b611a85828285611a16565b6020601f831160018114611ab95760008415611aa15750858201515b600019600886021c1981166002860217865550611b12565b600085815260208120601f198616915b82811015611ae95788850151825560209485019460019092019101611ac9565b86831015611b055784890151600019601f89166008021c191682555b6001600288020188555050505b505050505050565b602681526000602082017f4f776e61626c653a206e6577206f776e657220697320746865207a65726f206181526564647265737360d01b602082015291505b5060400190565b60208082528101610f0b81611b1a565b604081016116c88285611317565b601f81526000602082017f5265656e7472616e637947756172643a207265656e7472616e742063616c6c00815291506115d9565b60208082528101610f0b81611b7e565b81810381811115610f0b57610f0b6118e1565b818102808215838204851417611bed57611bed6118e1565b5092915050565b634e487b7160e01b600052601260045260246000fd5b600082611c1957611c19611bf4565b500490565b8015156112e0565b8051610f0b81611c1e565b600060208284031215611c4657611c46600080fd5b600061118e8484611c26565b602a81526000602082017f5361666545524332303a204552433230206f7065726174696f6e20646964206e8152691bdd081cdd58d8d9595960b21b60208201529150611b59565b60208082528101610f0b81611c52565b602681526000602082017f416464726573733a20696e73756666696369656e742062616c616e636520666f8152651c8818d85b1b60d21b60208201529150611b59565b60208082528101610f0b81611ca9565b601d81526000602082017f416464726573733a2063616c6c20746f206e6f6e2d636f6e7472616374000000815291506115d9565b60208082528101610f0b81611cfc565b6000611d4a825190565b611d5881856020860161136c565b9290920192915050565b6000610f1d8284611d4056fea26469706673582212206aeb082273f64da82693f56e1a4d0732b12d20ce64578db4566e207b3a9f276664736f6c63430008110033a2646970667358221220df04515ce2d8454caff79978461cdb8caf9f14a999531d89243b2c7fd004cafe64736f6c63430008110033",
  "immutableReferences": {},
  "source": "pragma solidity ^0.8.0;\n\nimport \"@openzeppelin/contracts/access/Ownable.sol\";\nimport \"@openzeppelin/contracts/utils/math/SafeMath.sol\";\nimport \"@openzeppelin/contracts/token/ERC20/utils/SafeERC20.sol\";\nimport \"@openzeppelin/contracts/token/ERC20/extensions/ERC20Burnable.sol\";\nimport \"./IDOPool.sol\";\n\ncontract IDOFactory is Ownable {\n    using SafeMath for uint256;\n    using SafeERC20 for ERC20Burnable;\n    using SafeERC20 for ERC20;\n\n    ERC20Burnable public feeToken;\n    address public feeWallet;\n    uint256 public feeAmount;\n    uint256 public burnPercent;\n    uint256 public divider;\n    uint256 public withdrawfeePercentage4 = 50;\n\n    uint256 public transferAmount;\n\n    struct  PoolInfoStruct{\n        uint256 startTimestamp;\n        uint256 finishTimestamp;\n        uint256 startClaimTimestamp;\n        uint256 lpWithdrawTimestamp;\n        uint256 minEthPayment;\n        uint256 maxEthPayment;\n        uint256 maxDistributedTokenAmount;\n    }\n\n    struct  Uniswap{\n        address FACTORY;\n        address ROUTER;\n        address WETH;\n    }\n\n    event IDOCreated(address indexed owner, address idoPool,\n        address indexed rewardToken,\n        string tokenURI\n        );\n\n    event TokenFeeUpdated(address newFeeToken);\n    event FeeAmountUpdated(uint256 newFeeAmount);\n    event BurnPercentUpdated(uint256 newBurnPercent, uint256 divider);\n    event FeeWalletUpdated(address newFeeWallet);\n\n    constructor(\n        ERC20Burnable _feeToken,\n        uint256 _feeAmount,\n        uint256 _burnPercent\n    ){\n        feeToken = _feeToken;\n        feeAmount = _feeAmount;\n        burnPercent = _burnPercent;\n        divider = 100;\n    }\n\n    function setWithdrawFee(uint256 _fee4) external onlyOwner {\n        withdrawfeePercentage4 = _fee4;\n    }\n\n    function setFeeToken(address _newFeeToken) external onlyOwner {\n        require(isContract(_newFeeToken), \"New address is not a token\");\n        feeToken = ERC20Burnable(_newFeeToken);\n\n        emit TokenFeeUpdated(_newFeeToken);\n    }\n\n    function setFeeAmount(uint256 _newFeeAmount) external onlyOwner {\n        feeAmount = _newFeeAmount;\n\n        emit FeeAmountUpdated(_newFeeAmount);\n    }\n\n    function setFeeWallet(address _newFeeWallet) external onlyOwner {\n        feeWallet = _newFeeWallet;\n\n        emit FeeWalletUpdated(_newFeeWallet);\n    }\n\n    function setBurnPercent(uint256 _newBurnPercent, uint256 _newDivider)\n        external\n        onlyOwner\n    {\n        require(_newBurnPercent <= _newDivider, \"Burn percent must be less than divider\");\n        burnPercent = _newBurnPercent;\n        divider = _newDivider;\n\n        emit BurnPercentUpdated(_newBurnPercent, _newDivider);\n    }\n\n    function createIDO(\n        ERC20 _rewardToken,\n        uint256 _tokenRate,\n        uint256 _listingRate,\n        IDOPool.Capacity memory _capacity,\n        IDOPool.Time memory _time,\n        IDOPool.Uniswap memory _uniswap,\n        IDOPool.LockInfo memory _lockInfo,\n        string memory _tokenURI\n    ) external payable returns(address){\n        if(feeAmount > 0){\n            uint256 burnAmount = feeAmount.mul(burnPercent).div(divider);\n\n            feeToken.safeTransferFrom(\n                msg.sender,\n                feeWallet,\n                feeAmount.sub(burnAmount)\n            );\n            feeToken.safeTransferFrom(msg.sender, address(this), burnAmount);\n            feeToken.burn(burnAmount);\n        }\n\n        IDOPool idoPool =\n            new IDOPool(\n                _rewardToken,\n                _tokenRate,\n                _listingRate,\n                _capacity,\n                _time,\n                _uniswap,\n                _lockInfo,\n                _tokenURI\n            );\n            \n        transferAmount = getTokenAmount(_capacity.hardCap, _tokenRate) + getTokenAmount(_capacity.hardCap * _lockInfo.lpPercentage / 100, _listingRate);\n        idoPool.transferOwnership(msg.sender);\n\n        _rewardToken.safeTransferFrom(\n            msg.sender,\n            address(idoPool),\n            transferAmount\n        );\n\n\n        emit IDOCreated(msg.sender, \n                        address(idoPool),\n                        address(_rewardToken),\n                        _tokenURI);\n\n        return address(idoPool);\n    }\n\n    function getTokenAmount(uint256 _ethAmount, uint256 _rate)\n        internal\n        view\n        returns (uint256)\n    {\n        return _ethAmount.mul(_rate).div(10 ** 18);\n    }\n\n    function isContract(address _addr) private view returns (bool) {\n        uint32 size;\n        assembly {\n            size := extcodesize(_addr)\n        }\n        return (size > 0);\n    }\n\n    function getTokenAmount(uint256 ethAmount, uint8 decimals, uint256 price)\n        internal\n        view\n        returns (uint256)\n    {\n        return ethAmount.mul(10**decimals).div(price);\n    }\n}",
  "sourcePath": "/Users/jarupaksrisuchat/Documents/github/ppenter/fontpad/contracts/IDOFactory.sol",
  "compiler": {
    "name": "solc",
    "version": "0.8.17+commit.8df45f5f.Emscripten.clang"
  },
  "schemaVersion": "3.4.10",
  "updatedAt": "2022-11-18T03:29:38.005Z",
  "networkType": "ethereum",
  "devdoc": {
    "kind": "dev",
    "methods": {
      "owner()": {
        "details": "Returns the address of the current owner."
      },
      "renounceOwnership()": {
        "details": "Leaves the contract without owner. It will not be possible to call `onlyOwner` functions anymore. Can only be called by the current owner. NOTE: Renouncing ownership will leave the contract without an owner, thereby removing any functionality that is only available to the owner."
      },
      "transferOwnership(address)": {
        "details": "Transfers ownership of the contract to a new account (`newOwner`). Can only be called by the current owner."
      }
    },
    "version": 1
  },
  "userdoc": {
    "kind": "user",
    "methods": {},
    "version": 1
  }
}