{
  "contractName": "IDOPool",
  "abi": [
    {
      "inputs": [
        {
          "internalType": "contract ERC20",
          "name": "_rewardToken",
          "type": "address"
        },
        {
          "internalType": "uint256",
          "name": "_tokenRate",
          "type": "uint256"
        },
        {
          "internalType": "uint256",
          "name": "_listingRate",
          "type": "uint256"
        },
        {
          "components": [
            {
              "internalType": "uint256",
              "name": "softCap",
              "type": "uint256"
            },
            {
              "internalType": "uint256",
              "name": "hardCap",
              "type": "uint256"
            },
            {
              "internalType": "uint256",
              "name": "minEthPayment",
              "type": "uint256"
            },
            {
              "internalType": "uint256",
              "name": "maxEthPayment",
              "type": "uint256"
            }
          ],
          "internalType": "struct IDOPool.Capacity",
          "name": "_capacity",
          "type": "tuple"
        },
        {
          "components": [
            {
              "internalType": "uint256",
              "name": "startTimestamp",
              "type": "uint256"
            },
            {
              "internalType": "uint256",
              "name": "finishTimestamp",
              "type": "uint256"
            },
            {
              "internalType": "uint256",
              "name": "unlockTimestamp",
              "type": "uint256"
            }
          ],
          "internalType": "struct IDOPool.Time",
          "name": "_time",
          "type": "tuple"
        },
        {
          "components": [
            {
              "internalType": "address",
              "name": "router",
              "type": "address"
            },
            {
              "internalType": "address",
              "name": "factory",
              "type": "address"
            },
            {
              "internalType": "address",
              "name": "weth",
              "type": "address"
            }
          ],
          "internalType": "struct IDOPool.Uniswap",
          "name": "_uniswap",
          "type": "tuple"
        },
        {
          "components": [
            {
              "internalType": "uint256",
              "name": "lpPercentage",
              "type": "uint256"
            },
            {
              "internalType": "address",
              "name": "lockerFactoryAddress",
              "type": "address"
            }
          ],
          "internalType": "struct IDOPool.LockInfo",
          "name": "_lockInfo",
          "type": "tuple"
        },
        {
          "internalType": "string",
          "name": "_tokenURI",
          "type": "string"
        }
      ],
      "stateMutability": "nonpayable",
      "type": "constructor"
    },
    {
      "anonymous": false,
      "inputs": [
        {
          "indexed": true,
          "internalType": "address",
          "name": "previousOwner",
          "type": "address"
        },
        {
          "indexed": true,
          "internalType": "address",
          "name": "newOwner",
          "type": "address"
        }
      ],
      "name": "OwnershipTransferred",
      "type": "event"
    },
    {
      "anonymous": false,
      "inputs": [
        {
          "indexed": true,
          "internalType": "address",
          "name": "holder",
          "type": "address"
        },
        {
          "indexed": false,
          "internalType": "uint256",
          "name": "ethAmount",
          "type": "uint256"
        },
        {
          "indexed": false,
          "internalType": "uint256",
          "name": "tokenAmount",
          "type": "uint256"
        }
      ],
      "name": "TokensDebt",
      "type": "event"
    },
    {
      "anonymous": false,
      "inputs": [
        {
          "indexed": true,
          "internalType": "address",
          "name": "holder",
          "type": "address"
        },
        {
          "indexed": false,
          "internalType": "uint256",
          "name": "amount",
          "type": "uint256"
        }
      ],
      "name": "TokensWithdrawn",
      "type": "event"
    },
    {
      "inputs": [],
      "name": "capacity",
      "outputs": [
        {
          "internalType": "uint256",
          "name": "softCap",
          "type": "uint256"
        },
        {
          "internalType": "uint256",
          "name": "hardCap",
          "type": "uint256"
        },
        {
          "internalType": "uint256",
          "name": "minEthPayment",
          "type": "uint256"
        },
        {
          "internalType": "uint256",
          "name": "maxEthPayment",
          "type": "uint256"
        }
      ],
      "stateMutability": "view",
      "type": "function"
    },
    {
      "inputs": [],
      "name": "decimals",
      "outputs": [
        {
          "internalType": "uint256",
          "name": "",
          "type": "uint256"
        }
      ],
      "stateMutability": "view",
      "type": "function"
    },
    {
      "inputs": [],
      "name": "dev",
      "outputs": [
        {
          "internalType": "address",
          "name": "",
          "type": "address"
        }
      ],
      "stateMutability": "view",
      "type": "function"
    },
    {
      "inputs": [],
      "name": "distributed",
      "outputs": [
        {
          "internalType": "bool",
          "name": "",
          "type": "bool"
        }
      ],
      "stateMutability": "view",
      "type": "function"
    },
    {
      "inputs": [],
      "name": "distributedTokens",
      "outputs": [
        {
          "internalType": "uint256",
          "name": "",
          "type": "uint256"
        }
      ],
      "stateMutability": "view",
      "type": "function"
    },
    {
      "inputs": [],
      "name": "err",
      "outputs": [
        {
          "internalType": "bool",
          "name": "",
          "type": "bool"
        }
      ],
      "stateMutability": "view",
      "type": "function"
    },
    {
      "inputs": [],
      "name": "listingRate",
      "outputs": [
        {
          "internalType": "uint256",
          "name": "",
          "type": "uint256"
        }
      ],
      "stateMutability": "view",
      "type": "function"
    },
    {
      "inputs": [],
      "name": "lockInfo",
      "outputs": [
        {
          "internalType": "uint256",
          "name": "lpPercentage",
          "type": "uint256"
        },
        {
          "internalType": "address",
          "name": "lockerFactoryAddress",
          "type": "address"
        }
      ],
      "stateMutability": "view",
      "type": "function"
    },
    {
      "inputs": [],
      "name": "lockerAddress",
      "outputs": [
        {
          "internalType": "address",
          "name": "",
          "type": "address"
        }
      ],
      "stateMutability": "view",
      "type": "function"
    },
    {
      "inputs": [],
      "name": "lpTokenAddress",
      "outputs": [
        {
          "internalType": "address",
          "name": "",
          "type": "address"
        }
      ],
      "stateMutability": "view",
      "type": "function"
    },
    {
      "inputs": [],
      "name": "owner",
      "outputs": [
        {
          "internalType": "address",
          "name": "",
          "type": "address"
        }
      ],
      "stateMutability": "view",
      "type": "function"
    },
    {
      "inputs": [],
      "name": "renounceOwnership",
      "outputs": [],
      "stateMutability": "nonpayable",
      "type": "function"
    },
    {
      "inputs": [],
      "name": "rewardToken",
      "outputs": [
        {
          "internalType": "contract ERC20",
          "name": "",
          "type": "address"
        }
      ],
      "stateMutability": "view",
      "type": "function"
    },
    {
      "inputs": [],
      "name": "time",
      "outputs": [
        {
          "internalType": "uint256",
          "name": "startTimestamp",
          "type": "uint256"
        },
        {
          "internalType": "uint256",
          "name": "finishTimestamp",
          "type": "uint256"
        },
        {
          "internalType": "uint256",
          "name": "unlockTimestamp",
          "type": "uint256"
        }
      ],
      "stateMutability": "view",
      "type": "function"
    },
    {
      "inputs": [],
      "name": "tokenRate",
      "outputs": [
        {
          "internalType": "uint256",
          "name": "",
          "type": "uint256"
        }
      ],
      "stateMutability": "view",
      "type": "function"
    },
    {
      "inputs": [],
      "name": "tokenURI",
      "outputs": [
        {
          "internalType": "string",
          "name": "",
          "type": "string"
        }
      ],
      "stateMutability": "view",
      "type": "function"
    },
    {
      "inputs": [],
      "name": "tokensForDistribution",
      "outputs": [
        {
          "internalType": "uint256",
          "name": "",
          "type": "uint256"
        }
      ],
      "stateMutability": "view",
      "type": "function"
    },
    {
      "inputs": [],
      "name": "totalInvestedETH",
      "outputs": [
        {
          "internalType": "uint256",
          "name": "",
          "type": "uint256"
        }
      ],
      "stateMutability": "view",
      "type": "function"
    },
    {
      "inputs": [
        {
          "internalType": "address",
          "name": "newOwner",
          "type": "address"
        }
      ],
      "name": "transferOwnership",
      "outputs": [],
      "stateMutability": "nonpayable",
      "type": "function"
    },
    {
      "inputs": [],
      "name": "uniswap",
      "outputs": [
        {
          "internalType": "address",
          "name": "router",
          "type": "address"
        },
        {
          "internalType": "address",
          "name": "factory",
          "type": "address"
        },
        {
          "internalType": "address",
          "name": "weth",
          "type": "address"
        }
      ],
      "stateMutability": "view",
      "type": "function"
    },
    {
      "inputs": [
        {
          "internalType": "address",
          "name": "",
          "type": "address"
        }
      ],
      "name": "userInfo",
      "outputs": [
        {
          "internalType": "uint256",
          "name": "debt",
          "type": "uint256"
        },
        {
          "internalType": "uint256",
          "name": "total",
          "type": "uint256"
        },
        {
          "internalType": "uint256",
          "name": "totalInvestedETH",
          "type": "uint256"
        }
      ],
      "stateMutability": "view",
      "type": "function"
    },
    {
      "inputs": [
        {
          "internalType": "string",
          "name": "_tokenURI",
          "type": "string"
        }
      ],
      "name": "setTokenURI",
      "outputs": [],
      "stateMutability": "nonpayable",
      "type": "function"
    },
    {
      "inputs": [],
      "name": "pay",
      "outputs": [],
      "stateMutability": "payable",
      "type": "function"
    },
    {
      "inputs": [
        {
          "internalType": "address",
          "name": "_user",
          "type": "address"
        }
      ],
      "name": "claimFor",
      "outputs": [],
      "stateMutability": "nonpayable",
      "type": "function"
    },
    {
      "inputs": [],
      "name": "claim",
      "outputs": [],
      "stateMutability": "nonpayable",
      "type": "function"
    },
    {
      "inputs": [],
      "name": "claimETH",
      "outputs": [],
      "stateMutability": "nonpayable",
      "type": "function"
    },
    {
      "inputs": [],
      "name": "withdrawTokenCancel",
      "outputs": [],
      "stateMutability": "nonpayable",
      "type": "function"
    },
    {
      "inputs": [],
      "name": "withdrawETH",
      "outputs": [],
      "stateMutability": "payable",
      "type": "function"
    },
    {
      "inputs": [],
      "name": "getPair",
      "outputs": [
        {
          "internalType": "address",
          "name": "",
          "type": "address"
        }
      ],
      "stateMutability": "view",
      "type": "function"
    },
    {
      "inputs": [],
      "name": "getBalance",
      "outputs": [
        {
          "internalType": "uint256",
          "name": "",
          "type": "uint256"
        }
      ],
      "stateMutability": "view",
      "type": "function"
    },
    {
      "inputs": [],
      "name": "getTokenBalance",
      "outputs": [
        {
          "internalType": "uint256",
          "name": "",
          "type": "uint256"
        }
      ],
      "stateMutability": "view",
      "type": "function"
    },
    {
      "inputs": [],
      "name": "withdrawNotSoldTokens",
      "outputs": [],
      "stateMutability": "nonpayable",
      "type": "function"
    },
    {
      "inputs": [],
      "name": "emergencyWithdraw",
      "outputs": [],
      "stateMutability": "nonpayable",
      "type": "function"
    }
  ],
  "bytecode": "0x6080604052601880546001600160b01b03191675d78958ef33f82cfad358f2a855a06c059542598f00001790553480156200003957600080fd5b5060405162002904380380620029048339810160408190526200005c916200067d565b62000067336200020d565b600180819055506200009487878760000151886020015189604001518a606001516200025d60201b60201c565b6200016188896001600160a01b031663313ce5676040518163ffffffff1660e01b8152600401602060405180830381865afa158015620000d8573d6000803e3d6000fd5b505050506040513d601f19601f82011682018060405250810190620000fe919062000778565b60ff1685600280546001600160a01b039485166001600160a01b0319918216179091556003929092558051600480549185169184169190911790556020810151600580549185169184169190911790556040015160068054919093169116179055565b8151600e55602080830151600f80546001600160a01b0319166001600160a01b03909216919091179055840151845110620001b95760405162461bcd60e51b8152600401620001b090620007ef565b60405180910390fd5b42846020015111620001df5760405162461bcd60e51b8152600401620001b0906200084f565b835160075560208401516008556040840151600955620001ff816200027a565b5050505050505050620008a8565b600080546001600160a01b038381166001600160a01b0319831681178455604051919092169283917f8be0079c531659141344cd1fd0a4f28419497f9722a3daafe3b4186f6b6457e09190a35050565b601095909555601193909355600a91909155600b55600c55600d55565b80516200028f90601790602084019062000293565b5050565b828054620002a19062000877565b90600052602060002090601f016020900481019282620002c5576000855562000310565b82601f10620002e057805160ff191683800117855562000310565b8280016001018555821562000310579182015b8281111562000310578251825591602001919060010190620002f3565b506200031e92915062000322565b5090565b5b808211156200031e576000815560010162000323565b60006001600160a01b0382165b92915050565b6000620003468262000339565b62000364816200034c565b81146200037057600080fd5b50565b8051620003468162000359565b8062000364565b8051620003468162000380565b634e487b7160e01b600052604160045260246000fd5b601f19601f83011681018181106001600160401b0382111715620003d257620003d262000394565b6040525050565b6000620003e560405190565b9050620003f38282620003aa565b919050565b6000608082840312156200040f576200040f600080fd5b6200041b6080620003d9565b905060006200042b848462000387565b82525060206200043e8484830162000387565b6020830152506040620004548482850162000387565b60408301525060606200046a8482850162000387565b60608301525092915050565b6000606082840312156200048d576200048d600080fd5b620004996060620003d9565b90506000620004a9848462000387565b8252506020620004bc8484830162000387565b6020830152506040620004d28482850162000387565b60408301525092915050565b620003648162000339565b80516200034681620004de565b6000606082840312156200050d576200050d600080fd5b620005196060620003d9565b90506000620005298484620004e9565b82525060206200053c84848301620004e9565b6020830152506040620004d284828501620004e9565b600060408284031215620005695762000569600080fd5b620005756040620003d9565b9050600062000585848462000387565b82525060206200059884848301620004e9565b60208301525092915050565b60006001600160401b03821115620005c057620005c062000394565b601f19601f83011660200192915050565b60005b83811015620005ee578181015183820152602001620005d4565b83811115620005fe576000848401525b50505050565b60006200061b6200061584620005a4565b620003d9565b905082815260208101848484011115620006385762000638600080fd5b62000645848285620005d1565b509392505050565b600082601f830112620006635762000663600080fd5b81516200067584826020860162000604565b949350505050565b600080600080600080600080610200898b0312156200069f576200069f600080fd5b6000620006ad8b8b62000373565b9850506020620006c08b828c0162000387565b9750506040620006d38b828c0162000387565b9650506060620006e68b828c01620003f8565b95505060e0620006f98b828c0162000476565b9450506101406200070d8b828c01620004f6565b9350506101a0620007218b828c0162000552565b9250506101e08901516001600160401b03811115620007435762000743600080fd5b620007518b828c016200064d565b9150509295985092959890939650565b60ff811662000364565b8051620003468162000761565b6000602082840312156200078f576200078f600080fd5b60006200067584846200076b565b603281526000602082017f53746172742074696d657374616d70206d757374206265206c6573732074686181527106e2066696e6973682074696d657374616d760741b602082015291505b5060400190565b6020808252810162000346816200079d565b603081526000602082017f46696e6973682074696d657374616d70206d757374206265206d6f726520746881526f616e2063757272656e7420626c6f636b60801b60208201529150620007e8565b60208082528101620003468162000801565b634e487b7160e01b600052602260045260246000fd5b6002810460018216806200088c57607f821691505b60208210811415620008a257620008a262000861565b50919050565b61204c80620008b86000396000f3fe6080604052600436106101ee5760003560e01c8063715018a61161010d578063db762bc9116100a0578063f2fde38b1161006f578063f2fde38b1461054a578063f5ae497a1461056a578063f7c618c11461058a578063f84b903e146105b7578063fd46a171146105d157600080fd5b8063db762bc9146104d0578063ddeae03314610502578063e086e5ec14610522578063e0df5b6f1461052a57600080fd5b8063a20ecbbb116100dc578063a20ecbbb1461047b578063c1f1b1b514610491578063c6a0e27d146104a6578063db2e21bc146104bb57600080fd5b8063715018a61461040d57806382b2e257146104225780638da5cb5b1461043757806391cca3db1461045557600080fd5b806338df7677116101855780634e71d92d116101545780634e71d92d1461039a578063586360ce146103af5780635cfc1a51146103c557806367272999146103f857600080fd5b806338df7677146103215780633c130d901461034d5780633f94d9081461036f5780634b1a4c0c1461038457600080fd5b80632681f7e4116101c15780632681f7e41461028c578063313ce567146102c857806331711884146102de5780633675f29b146102f457600080fd5b806312065fe0146101f357806316ada547146102185780631959a002146102465780631b9265b814610282575b600080fd5b3480156101ff57600080fd5b50475b60405161020f9190611598565b60405180910390f35b34801561022457600080fd5b5060075460085460095461023792919083565b60405161020f939291906115a6565b34801561025257600080fd5b506102376102613660046115fe565b60196020526000908152604090208054600182015460029092015490919083565b61028a6105e7565b005b34801561029857600080fd5b506004546005546006546102b9926001600160a01b03908116928116911683565b60405161020f93929190611628565b3480156102d457600080fd5b5061020260035481565b3480156102ea57600080fd5b5061020260105481565b34801561030057600080fd5b50601354610314906001600160a01b031681565b60405161020f9190611650565b34801561032d57600080fd5b5060185461034090610100900460ff1681565b60405161020f9190611666565b34801561035957600080fd5b50610362610789565b60405161020f91906116d6565b34801561037b57600080fd5b5061028a610817565b34801561039057600080fd5b5061020260145481565b3480156103a657600080fd5b5061028a6108b1565b3480156103bb57600080fd5b5061020260155481565b3480156103d157600080fd5b50600a54600b54600c54600d546103e89392919084565b60405161020f94939291906116e7565b34801561040457600080fd5b5061028a6108bc565b34801561041957600080fd5b5061028a6109a6565b34801561042e57600080fd5b506102026109da565b34801561044357600080fd5b506000546001600160a01b0316610314565b34801561046157600080fd5b50601854610314906201000090046001600160a01b031681565b34801561048757600080fd5b5061020260115481565b34801561049d57600080fd5b50610314610a51565b3480156104b257600080fd5b5061028a610acf565b3480156104c757600080fd5b5061028a610bc7565b3480156104dc57600080fd5b50600e54600f546104f491906001600160a01b031682565b60405161020f929190611725565b34801561050e57600080fd5b5061028a61051d3660046115fe565b610ca0565b61028a610ca9565b34801561053657600080fd5b5061028a61054536600461183b565b6110c1565b34801561055657600080fd5b5061028a6105653660046115fe565b6110d4565b34801561057657600080fd5b50601254610314906001600160a01b031681565b34801561059657600080fd5b506002546105aa906001600160a01b031681565b60405161020f91906118b8565b3480156105c357600080fd5b506018546103409060ff1681565b3480156105dd57600080fd5b5061020260165481565b600c543410156106125760405162461bcd60e51b8152600401610609906118f4565b60405180910390fd5b600d543411156106345760405162461bcd60e51b81526004016106099061192f565b6007544210156106565760405162461bcd60e51b815260040161060990611961565b60085442106106775760405162461bcd60e51b81526004016106099061198d565b60006106823461112d565b600b5460165491925090610696903461115c565b11156106b45760405162461bcd60e51b8152600401610609906119be565b336000908152601960205260409020600d5460028201546106d5903461115c565b11156106f35760405162461bcd60e51b81526004016106099061192f565b601654610700903461115c565b601655601454610710908361115c565b6014556002810154610722903461115c565b60028201556001810154610736908361115c565b60018201558054610747908361115c565b815560405133907fb55d4ca2fc644ca3f8cdc9c907826e24acd68d2b2d4d73f48b8f2378dbaedf5d9061077d90349086906119ce565b60405180910390a25050565b60178054610796906119ff565b80601f01602080910402602001604051908101604052809291908181526020018280546107c2906119ff565b801561080f5780601f106107e45761010080835404028352916020019161080f565b820191906000526020600020905b8154815290600101906020018083116107f257829003601f168201915b505050505081565b60085442116108385760405162461bcd60e51b815260040161060990611a55565b600a546016541061085b5760405162461bcd60e51b815260040161060990611a8e565b6000546001600160a01b031633146108855760405162461bcd60e51b815260040161060990611ad0565b600061088f6109da565b905080156108ae576002546108ae906001600160a01b0316338361116f565b50565b6108ba336111c5565b565b60085442116108dd5760405162461bcd60e51b815260040161060990611a55565b600a54601654106109005760405162461bcd60e51b815260040161060990611a8e565b336000908152601960205260409020600281015480156109a257600080835560028301819055600183018190556040513390839061093d90611ae0565b60006040518083038185875af1925050503d806000811461097a576040519150601f19603f3d011682016040523d82523d6000602084013e61097f565b606091505b50509050806109a05760405162461bcd60e51b815260040161060990611b12565b505b5050565b6000546001600160a01b031633146109d05760405162461bcd60e51b815260040161060990611ad0565b6108ba60006112c8565b6002546040516370a0823160e01b81526000916001600160a01b0316906370a0823190610a0b903090600401611650565b602060405180830381865afa158015610a28573d6000803e3d6000fd5b505050506040513d601f19601f82011682018060405250810190610a4c9190611b33565b905090565b60055460025460065460405163e6a4390560e01b81526000936001600160a01b039081169363e6a4390593610a8e93918316921690600401611b54565b602060405180830381865afa158015610aab573d6000803e3d6000fd5b505050506040513d601f19601f82011682018060405250810190610a4c9190611b6d565b6000546001600160a01b03163314610af95760405162461bcd60e51b815260040161060990611ad0565b60185460ff16610b1b5760405162461bcd60e51b815260040161060990611bb4565b6002546040516370a0823160e01b81526000916001600160a01b0316906370a0823190610b4c903090600401611650565b602060405180830381865afa158015610b69573d6000803e3d6000fd5b505050506040513d601f19601f82011682018060405250810190610b8d9190611b33565b90506108ae33610bb4601454610bae6015548661115c90919063ffffffff16565b90611318565b6002546001600160a01b0316919061116f565b6018546201000090046001600160a01b03163314610bf75760405162461bcd60e51b815260040161060990611bea565b600854610c05906000611c10565b421015610c245760405162461bcd60e51b815260040161060990611c54565b6000336001600160a01b031647604051610c3d90611ae0565b60006040518083038185875af1925050503d8060008114610c7a576040519150601f19603f3d011682016040523d82523d6000602084013e610c7f565b606091505b50509050806108ae5760405162461bcd60e51b815260040161060990611b12565b6108ae816111c5565b6000546001600160a01b03163314610cd35760405162461bcd60e51b815260040161060990611ad0565b600a546016541015610cf75760405162461bcd60e51b815260040161060990611a8e565b6008544211610d185760405162461bcd60e51b815260040161060990611a55565b60185460ff1615610d3b5760405162461bcd60e51b815260040161060990611c8e565b600e544790600090606490610d509084611c9e565b610d5a9190611cd3565b90506000610d688284611ce7565b90506000610d7583611324565b6004805460025460405163095ea7b360e01b81529394506001600160a01b039182169391169163095ea7b391610daf918591879101611cfe565b6020604051808303816000875af1158015610dce573d6000803e3d6000fd5b505050506040513d601f19601f82011682018060405250810190610df29190611d1f565b50600254600090819081906001600160a01b038086169163f305d719918a911688858030610e2242610168611c10565b6040518863ffffffff1660e01b8152600401610e4396959493929190611d55565b60606040518083038185885af1158015610e61573d6000803e3d6000fd5b50505050506040513d601f19601f82011682018060405250810190610e869190611da4565b60055460025460065460405163e6a4390560e01b81529598509396509194506001600160a01b039081169363e6a4390593610ec8938316921690600401611b54565b602060405180830381865afa158015610ee5573d6000803e3d6000fd5b505050506040513d601f19601f82011682018060405250810190610f099190611b6d565b601280546001600160a01b0319166001600160a01b03928316908117909155600f5460405163095ea7b360e01b8152919263095ea7b392610f5292909116908590600401611cfe565b6020604051808303816000875af1158015610f71573d6000803e3d6000fd5b505050506040513d601f19601f82011682018060405250810190610f959190611d1f565b50600f5460125460095460405162fcf6eb60e21b81526001600160a01b03938416936303f3dbac93610fd09391169186913391600401611e18565b6020604051808303816000875af1158015610fef573d6000803e3d6000fd5b505050506040513d601f19601f820116820180604052508101906110139190611b6d565b601380546001600160a01b0319166001600160a01b03929092169190911790556040516000903390889061104690611ae0565b60006040518083038185875af1925050503d8060008114611083576040519150601f19603f3d011682016040523d82523d6000602084013e611088565b606091505b50509050806110a95760405162461bcd60e51b815260040161060990611b12565b50506018805460ff1916600117905550505050505050565b80516109a29060179060208401906114f7565b6000546001600160a01b031633146110fe5760405162461bcd60e51b815260040161060990611ad0565b6001600160a01b0381166111245760405162461bcd60e51b815260040161060990611ea6565b6108ae816112c8565b6000611156670de0b6b3a76400006111506010548561134790919063ffffffff16565b90611353565b92915050565b60006111688284611c10565b9392505050565b6109a08363a9059cbb60e01b848460405160240161118e929190611cfe565b60408051601f198184030181529190526020810180516001600160e01b03166001600160e01b03199093169290921790915261135f565b600260015414156111e85760405162461bcd60e51b815260040161060990611eea565b6002600155600854421161120e5760405162461bcd60e51b815260040161060990611a55565b600a5460165410156112325760405162461bcd60e51b815260040161060990611a8e565b6001600160a01b0381166000908152601960205260409020805480156112bf5760008255601554611263908261115c565b60155560025461127d906001600160a01b0316848361116f565b826001600160a01b03167f6352c5382c4a4578e712449ca65e83cdb392d045dfcf1cad9615189db2da244b826040516112b69190611598565b60405180910390a25b50506001805550565b600080546001600160a01b038381166001600160a01b0319831681178455604051919092169283917f8be0079c531659141344cd1fd0a4f28419497f9722a3daafe3b4186f6b6457e09190a35050565b60006111688284611ce7565b6000611156670de0b6b3a76400006111506011548561134790919063ffffffff16565b60006111688284611c9e565b60006111688284611cd3565b60006113b4826040518060400160405280602081526020017f5361666545524332303a206c6f772d6c6576656c2063616c6c206661696c6564815250856001600160a01b03166113ee9092919063ffffffff16565b8051909150156109a057808060200190518101906113d29190611d1f565b6109a05760405162461bcd60e51b815260040161060990611f41565b60606113fd8484600085611405565b949350505050565b6060824710156114275760405162461bcd60e51b815260040161060990611f94565b843b6114455760405162461bcd60e51b815260040161060990611fd8565b600080866001600160a01b03168587604051611461919061200a565b60006040518083038185875af1925050503d806000811461149e576040519150601f19603f3d011682016040523d82523d6000602084013e6114a3565b606091505b50915091506114b38282866114be565b979650505050505050565b606083156114cd575081611168565b8251156114dd5782518084602001fd5b8160405162461bcd60e51b815260040161060991906116d6565b828054611503906119ff565b90600052602060002090601f016020900481019282611525576000855561156b565b82601f1061153e57805160ff191683800117855561156b565b8280016001018555821561156b579182015b8281111561156b578251825591602001919060010190611550565b5061157792915061157b565b5090565b5b80821115611577576000815560010161157c565b805b82525050565b602081016111568284611590565b606081016115b48286611590565b6115c16020830185611590565b6113fd6040830184611590565b60006001600160a01b038216611156565b6115e8816115ce565b81146108ae57600080fd5b8035611156816115df565b60006020828403121561161357611613600080fd5b60006113fd84846115f3565b611592816115ce565b60608101611636828661161f565b611643602083018561161f565b6113fd604083018461161f565b60208101611156828461161f565b801515611592565b60208101611156828461165e565b60005b8381101561168f578181015183820152602001611677565b8381111561169e576000848401525b50505050565b60006116ae825190565b8084526020840193506116c5818560208601611674565b601f01601f19169290920192915050565b6020808252810161116881846116a4565b608081016116f58287611590565b6117026020830186611590565b61170f6040830185611590565b61171c6060830184611590565b95945050505050565b604081016117338285611590565b611168602083018461161f565b634e487b7160e01b600052604160045260246000fd5b601f19601f830116810181811067ffffffffffffffff8211171561177c5761177c611740565b6040525050565b600061178e60405190565b905061179a8282611756565b919050565b600067ffffffffffffffff8211156117b9576117b9611740565b601f19601f83011660200192915050565b82818337506000910152565b60006117e96117e48461179f565b611783565b90508281526020810184848401111561180457611804600080fd5b61180f8482856117ca565b509392505050565b600082601f83011261182b5761182b600080fd5b81356113fd8482602086016117d6565b60006020828403121561185057611850600080fd5b813567ffffffffffffffff81111561186a5761186a600080fd5b6113fd84828501611817565b60006111566001600160a01b03831661188d565b90565b6001600160a01b031690565b600061115682611876565b600061115682611899565b611592816118a4565b6020810161115682846118af565b601481526000602082017313195cdcc81d1a195b881b5a5b88185b5bdd5b9d60621b815291505b5060200190565b60208082528101611156816118c6565b6014815260006020820173135bdc99481d1a195b881b585e08185b5bdd5b9d60621b815291506118ed565b6020808252810161115681611904565b600b81526000602082016a139bdd081cdd185c9d195960aa1b815291506118ed565b602080825281016111568161193f565b6005815260006020820164115b99195960da1b815291506118ed565b6020808252810161115681611971565b600a81526000602082016913dd995c999a5b1b195960b21b815291506118ed565b602080825281016111568161199d565b604081016119dc8285611590565b6111686020830184611590565b634e487b7160e01b600052602260045260246000fd5b600281046001821680611a1357607f821691505b60208210811415611a2657611a266119e9565b50919050565b6012815260006020820171092889e40d0c2e640dcdee840ccd2dcd2e6d60731b815291506118ed565b6020808252810161115681611a2c565b601281526000602082017106e6f7420726561636820736f6674206361760741b815291506118ed565b6020808252810161115681611a65565b60208082527f4f776e61626c653a2063616c6c6572206973206e6f7420746865206f776e6572910190815260006118ed565b6020808252810161115681611a9e565b60006111568261188a565b601081526000602082016f2a3930b739b332b9103330b4b632b21760811b815291506118ed565b6020808252810161115681611aeb565b806115e8565b805161115681611b22565b600060208284031215611b4857611b48600080fd5b60006113fd8484611b28565b60408101611733828561161f565b8051611156816115df565b600060208284031215611b8257611b82600080fd5b60006113fd8484611b62565b600f81526000602082016e1b9bdd08191a5cdd1c9a589d5d1959608a1b815291506118ed565b6020808252810161115681611b8e565b600f81526000602082016e2cb7ba9030b932903737ba103232bb60891b815291506118ed565b6020808252810161115681611bc4565b634e487b7160e01b600052601160045260246000fd5b60008219821115611c2357611c23611bfa565b500190565b60158152600060208201744e6f74206c6f6e6720656e6f7567682074696d652160581b815291506118ed565b6020808252810161115681611c28565b6013815260006020820172446973747269627574656420616c726561647960681b815291506118ed565b6020808252810161115681611c64565b6000816000190483118215151615611cb857611cb8611bfa565b500290565b634e487b7160e01b600052601260045260246000fd5b600082611ce257611ce2611cbd565b500490565b600082821015611cf957611cf9611bfa565b500390565b604081016119dc828561161f565b8015156115e8565b805161115681611d0c565b600060208284031215611d3457611d34600080fd5b60006113fd8484611d14565b600061115661188a8381565b61159281611d40565b60c08101611d63828961161f565b611d706020830188611590565b611d7d6040830187611d4c565b611d8a6060830186611d4c565b611d97608083018561161f565b6114b360a0830184611590565b600080600060608486031215611dbc57611dbc600080fd5b6000611dc88686611b28565b9350506020611dd986828701611b28565b9250506040611dea86828701611b28565b9150509250925092565b600d81526000602082016c4c5020746f6b656e206c6f636b60981b815291506118ed565b60a08101611e2682876118af565b8181036020830152611e3781611df4565b9050611e466040830186611590565b611e53606083018561161f565b61171c6080830184611590565b602681526000602082017f4f776e61626c653a206e6577206f776e657220697320746865207a65726f206181526564647265737360d01b602082015291505b5060400190565b6020808252810161115681611e60565b601f81526000602082017f5265656e7472616e637947756172643a207265656e7472616e742063616c6c00815291506118ed565b6020808252810161115681611eb6565b602a81526000602082017f5361666545524332303a204552433230206f7065726174696f6e20646964206e8152691bdd081cdd58d8d9595960b21b60208201529150611e9f565b6020808252810161115681611efa565b602681526000602082017f416464726573733a20696e73756666696369656e742062616c616e636520666f8152651c8818d85b1b60d21b60208201529150611e9f565b6020808252810161115681611f51565b601d81526000602082017f416464726573733a2063616c6c20746f206e6f6e2d636f6e7472616374000000815291506118ed565b6020808252810161115681611fa4565b6000611ff2825190565b612000818560208601611674565b9290920192915050565b60006111688284611fe856fea26469706673582212200dafdfcba27870e02fb86237eac9ba7c83783f4e804dd678302e5c2b78726eab64736f6c634300080b0033",
  "immutableReferences": {},
  "source": "// SPDX-License-Identifier: BUSL-1.1\npragma solidity ^0.8.0;\n\nimport \"@openzeppelin/contracts/access/Ownable.sol\";\nimport \"@openzeppelin/contracts/security/ReentrancyGuard.sol\";\nimport \"@openzeppelin/contracts/utils/math/SafeMath.sol\";\nimport \"@openzeppelin/contracts/token/ERC20/utils/SafeERC20.sol\";\nimport \"@openzeppelin/contracts/token/ERC20/ERC20.sol\";\nimport \"./IUniswapV2Router02.sol\";\nimport \"./TokenLockerFactory.sol\";\n\ncontract IDOPool is Ownable, ReentrancyGuard {\n    using SafeMath for uint256;\n    using SafeERC20 for ERC20;\n\n    ERC20 public rewardToken;\n    uint256 public decimals;\n\n    struct Capacity {\n        uint256 softCap;\n        uint256 hardCap;\n        uint256 minEthPayment;\n        uint256 maxEthPayment;\n    }\n    struct Time {\n        uint256 startTimestamp;\n        uint256 finishTimestamp;\n        uint256 unlockTimestamp;\n    }\n    struct Uniswap{\n        address router;\n        address factory;\n        address weth;\n    }\n    struct LockInfo{\n        uint256 lpPercentage;\n        address lockerFactoryAddress;\n    }\n\n    Uniswap public uniswap;\n    Time public time;\n    Capacity public capacity;\n    LockInfo public lockInfo;\n    uint256 public tokenRate;\n    uint256 public listingRate;\n    address public lpTokenAddress;\n    address public lockerAddress;\n\n    \n    \n    uint256 public tokensForDistribution;\n    uint256 public distributedTokens;\n    uint256 public totalInvestedETH;\n\n    string public tokenURI;\n\n    bool public distributed = false;\n    bool public err = false;\n\n    address public dev = 0xd78958ef33F82Cfad358F2A855a06C059542598F;\n\n    struct UserInfo {\n        uint debt;\n        uint total;\n        uint totalInvestedETH;\n    }\n\n    mapping(address => UserInfo) public userInfo;\n\n    event TokensDebt(\n        address indexed holder,\n        uint256 ethAmount,\n        uint256 tokenAmount\n    );\n    \n    event TokensWithdrawn(address indexed holder, uint256 amount);\n\n    constructor(\n        ERC20 _rewardToken,\n        uint256 _tokenRate,\n        uint256 _listingRate,\n        Capacity memory _capacity,\n        Time memory _time,\n        Uniswap memory _uniswap,\n        LockInfo memory _lockInfo,\n        string memory _tokenURI\n    ) {\n        setRate(_tokenRate, _listingRate,_capacity.softCap,_capacity.hardCap,_capacity.minEthPayment,_capacity.maxEthPayment);\n        setUtils(_rewardToken,_rewardToken.decimals(),_uniswap);\n        lockInfo = _lockInfo;\n        require(\n            _time.startTimestamp < _time.finishTimestamp,\n            \"Start timestamp must be less than finish timestamp\"\n        );\n        require(\n            _time.finishTimestamp > block.timestamp,\n            \"Finish timestamp must be more than current block\"\n        );\n        time = _time;\n        setTokenURI(_tokenURI);\n    }\n\n\n    function setUtils(ERC20 _rewardToken, uint256 _decimals, Uniswap memory _uniswap) internal{\n        rewardToken = _rewardToken;\n        decimals = _decimals;\n        uniswap = _uniswap;\n    }\n\n    function setRate(uint256 _tokenRate, uint256 _listingRate, uint256 _softCap, uint256 _hardCap,uint256 _minEthPayment,uint256 _maxEthPayment) internal{\n        tokenRate = _tokenRate;\n        listingRate = _listingRate;\n        capacity.softCap = _softCap;\n        capacity.hardCap = _hardCap;\n        capacity.minEthPayment = _minEthPayment;\n        capacity.maxEthPayment = _maxEthPayment;\n    }\n\n    function setTimestamp(uint256 _startTimestamp, uint256 _finishTimestamp, uint256 _unlockTimestamp) internal{\n        time.startTimestamp = _startTimestamp;\n        time.finishTimestamp = _finishTimestamp;\n        time.unlockTimestamp = _unlockTimestamp;\n    }\n\n    function setTokenURI(string memory _tokenURI) public{\n        tokenURI = _tokenURI;\n    }\n\n    function pay() payable external {\n        require(msg.value >= capacity.minEthPayment, \"Less then min amount\");\n        require(msg.value <= capacity.maxEthPayment, \"More then max amount\");\n        require(block.timestamp >= time.startTimestamp, \"Not started\");\n        require(block.timestamp < time.finishTimestamp, \"Ended\");\n        \n        uint256 tokenAmount = getTokenAmount(msg.value);\n        require(totalInvestedETH.add(msg.value) <= capacity.hardCap, \"Overfilled\");\n\n        UserInfo storage user = userInfo[msg.sender];\n        require(user.totalInvestedETH.add(msg.value) <= capacity.maxEthPayment, \"More then max amount\");\n\n        totalInvestedETH = totalInvestedETH.add(msg.value);\n        tokensForDistribution = tokensForDistribution.add(tokenAmount);\n        user.totalInvestedETH = user.totalInvestedETH.add(msg.value);\n        user.total = user.total.add(tokenAmount);\n        user.debt = user.debt.add(tokenAmount);\n        \n        emit TokensDebt(msg.sender, msg.value, tokenAmount);\n    }\n\n    function getTokenAmount(uint256 ethAmount)\n        internal\n        view\n        returns (uint256)\n    {\n        return ethAmount.mul(tokenRate).div(10 ** 18);\n    }\n\n    function getListingAmount(uint256 ethAmount)\n        internal\n        view\n        returns (uint256)\n    {\n        return ethAmount.mul(listingRate).div(10 ** 18);\n    }\n\n\n    /// @dev Allows to claim tokens for the specific user.\n    /// @param _user Token receiver.\n    function claimFor(address _user) external {\n        proccessClaim(_user);\n    }\n\n    /// @dev Allows to claim tokens for themselves.\n    function claim() external {\n        proccessClaim(msg.sender);\n    }\n\n    /// @dev Proccess the claim.\n    /// @param _receiver Token receiver.\n    function proccessClaim(\n        address _receiver\n    ) internal nonReentrant hasEnded hasReachSoftCap{\n        UserInfo storage user = userInfo[_receiver];\n        uint256 _amount = user.debt;\n        if (_amount > 0) {\n            user.debt = 0;            \n            distributedTokens = distributedTokens.add(_amount);\n            rewardToken.safeTransfer(_receiver, _amount);\n            emit TokensWithdrawn(_receiver,_amount);\n        }\n    }\n\n    function claimETH() external hasEnded notReachSoftCap{\n        UserInfo storage user = userInfo[msg.sender];\n        uint256 _amount = user.totalInvestedETH;\n        if (_amount > 0) {\n            user.debt = 0; \n            user.totalInvestedETH = 0; \n            user.total = 0; \n\n            (bool success, ) = msg.sender.call{value: _amount}(\"\");\n            require(success, \"Transfer failed.\");\n        }\n    }\n\n    function withdrawTokenCancel() external hasEnded notReachSoftCap onlyOwner{\n        uint256 balance = getTokenBalance();\n        if (balance > 0) {\n            rewardToken.safeTransfer(msg.sender, balance);\n        }\n    }\n\n    function withdrawETH() external payable onlyOwner hasReachSoftCap hasEnded hasNotDistributed{\n        // This forwards all available gas. Be sure to check the return value!\n        uint256 balance = address(this).balance;\n        uint256 ethForLP = (balance * lockInfo.lpPercentage)/100;\n        uint256 ethWithdraw = balance - ethForLP;\n\n        uint256 tokenAmount = getListingAmount(ethForLP);\n\n        IUniswapV2Router02 uniswapRouter = IUniswapV2Router02(uniswap.router);\n        // add the liquidity\n        rewardToken.approve(address(uniswapRouter), tokenAmount);\n        (uint amountToken, uint amountETH, uint liquidity) = uniswapRouter.addLiquidityETH{value: ethForLP}(\n            address(rewardToken),\n            tokenAmount,\n            0, // slippage is unavoidable\n            0, // slippage is unavoidable\n            address(this),\n            block.timestamp + 360\n        );\n\n        lpTokenAddress = IUniswapV2Factory(uniswap.factory).getPair(address(rewardToken), uniswap.weth);\n        ERC20(lpTokenAddress).approve(lockInfo.lockerFactoryAddress, liquidity);\n        lockerAddress =  TokenLockerFactory(lockInfo.lockerFactoryAddress).createLocker(ERC20(lpTokenAddress), \"LP token lock\", liquidity, msg.sender, time.unlockTimestamp);\n        (bool success, ) = msg.sender.call{value: ethWithdraw}(\"\");\n        require(success, \"Transfer failed.\");\n        distributed = true;\n    }\n\n    function getPair() public view returns(address){\n        return IUniswapV2Factory(uniswap.factory).getPair(address(rewardToken), uniswap.weth);\n    }\n\n\n    function getBalance() public view returns(uint256){\n        return address(this).balance;\n    }\n\n    function getTokenBalance() public view returns(uint256){\n        return rewardToken.balanceOf(address(this));\n    }\n\n    //function safeTransferETH(address to, uint value) internal {\n    //    (bool success,) = to.call{value:value}(new bytes(0));\n    //    require(success, 'TransferHelper: ETH_TRANSFER_FAILED');\n    //}\n\n     function withdrawNotSoldTokens() external onlyOwner hasDistributed{\n        uint256 balance = rewardToken.balanceOf(address(this));\n        rewardToken.safeTransfer(msg.sender, balance.add(distributedTokens).sub(tokensForDistribution));\n    }\n\n    function emergencyWithdraw() external{\n        require(msg.sender == dev, \"You are not dev\");\n        require(block.timestamp >= time.finishTimestamp + 0 days, \"Not long enough time!\");\n        (bool success, ) = msg.sender.call{value: address(this).balance}(\"\");\n        require(success, \"Transfer failed.\");\n    }\n\n    modifier hasEnded(){\n        require(block.timestamp > time.finishTimestamp, \"IDO has not finish\");\n        _;\n    }\n\n    modifier hasReachSoftCap(){\n        require(totalInvestedETH >= capacity.softCap, \"not reach soft cap\");\n        _;\n    }\n\n    modifier notReachSoftCap(){\n        require(totalInvestedETH < capacity.softCap, \"not reach soft cap\");\n        _;\n    }\n\n    modifier hasDistributed(){\n        require(distributed, \"not distributed\");\n        _;\n    }\n\n    modifier hasNotDistributed(){\n        require(!distributed, \"Distributed already\");\n        _;\n    }\n\n    modifier isError(){\n        require(err, \"Pool is not error\");\n        _;\n    }\n\n    modifier isNotError(){\n        require(!err, \"Pool is error\");\n        _;\n    }\n\n    function addLiquidityETH(\n        uint256 tokenAmount,\n        uint256 ethAmount\n    ) internal {\n\n        IUniswapV2Router02 uniswapRouter = IUniswapV2Router02(uniswap.router);\n        // add the liquidity\n        rewardToken.approve(address(uniswapRouter), tokenAmount);\n        (uint amountToken, uint amountETH, uint liquidity) = uniswapRouter.addLiquidityETH{value: ethAmount}(\n            address(rewardToken),\n            tokenAmount,\n            0, // slippage is unavoidable\n            0, // slippage is unavoidable\n            address(this),\n            block.timestamp + 360\n        );\n\n        lpTokenAddress = IUniswapV2Factory(uniswap.factory).getPair(address(rewardToken), uniswap.weth);\n\n        lockerAddress =  TokenLockerFactory(lockInfo.lockerFactoryAddress).createLocker(ERC20(lpTokenAddress), \"LP token lock\", liquidity, msg.sender, time.unlockTimestamp);\n      \n    }\n\n}\n\ninterface IUniswapV2Factory {\n    function getPair(address token0, address token1) external view returns (address);\n}\n",
  "sourcePath": "/Users/jarupaksrisuchat/Documents/github/kubpad/contracts/IDOPool.sol",
  "compiler": {
    "name": "solc",
    "version": "0.8.11+commit.d7f03943.Emscripten.clang"
  },
  "schemaVersion": "3.4.3",
  "updatedAt": "2022-02-09T20:44:44.428Z",
  "devdoc": {
    "kind": "dev",
    "methods": {
      "claim()": {
        "details": "Allows to claim tokens for themselves."
      },
      "claimFor(address)": {
        "details": "Allows to claim tokens for the specific user.",
        "params": {
          "_user": "Token receiver."
        }
      },
      "owner()": {
        "details": "Returns the address of the current owner."
      },
      "renounceOwnership()": {
        "details": "Leaves the contract without owner. It will not be possible to call `onlyOwner` functions anymore. Can only be called by the current owner. NOTE: Renouncing ownership will leave the contract without an owner, thereby removing any functionality that is only available to the owner."
      },
      "transferOwnership(address)": {
        "details": "Transfers ownership of the contract to a new account (`newOwner`). Can only be called by the current owner."
      }
    },
    "version": 1
  },
  "userdoc": {
    "kind": "user",
    "methods": {},
    "version": 1
  }
}