{
  "contractName": "TokenLocker",
  "abi": [
    {
      "inputs": [
        {
          "internalType": "contract ERC20",
          "name": "_token",
          "type": "address"
        },
        {
          "internalType": "string",
          "name": "_name",
          "type": "string"
        },
        {
          "internalType": "address",
          "name": "_withdrawer",
          "type": "address"
        },
        {
          "internalType": "uint256",
          "name": "_withdrawTime",
          "type": "uint256"
        }
      ],
      "stateMutability": "nonpayable",
      "type": "constructor"
    },
    {
      "anonymous": false,
      "inputs": [
        {
          "indexed": true,
          "internalType": "address",
          "name": "previousOwner",
          "type": "address"
        },
        {
          "indexed": true,
          "internalType": "address",
          "name": "newOwner",
          "type": "address"
        }
      ],
      "name": "OwnershipTransferred",
      "type": "event"
    },
    {
      "anonymous": false,
      "inputs": [
        {
          "indexed": false,
          "internalType": "uint256",
          "name": "timestamp",
          "type": "uint256"
        },
        {
          "indexed": false,
          "internalType": "uint256",
          "name": "amount",
          "type": "uint256"
        }
      ],
      "name": "withdrawTokenEvent",
      "type": "event"
    },
    {
      "inputs": [],
      "name": "name",
      "outputs": [
        {
          "internalType": "string",
          "name": "",
          "type": "string"
        }
      ],
      "stateMutability": "view",
      "type": "function"
    },
    {
      "inputs": [],
      "name": "owner",
      "outputs": [
        {
          "internalType": "address",
          "name": "",
          "type": "address"
        }
      ],
      "stateMutability": "view",
      "type": "function"
    },
    {
      "inputs": [],
      "name": "renounceOwnership",
      "outputs": [],
      "stateMutability": "nonpayable",
      "type": "function"
    },
    {
      "inputs": [],
      "name": "token",
      "outputs": [
        {
          "internalType": "contract ERC20",
          "name": "",
          "type": "address"
        }
      ],
      "stateMutability": "view",
      "type": "function"
    },
    {
      "inputs": [
        {
          "internalType": "address",
          "name": "newOwner",
          "type": "address"
        }
      ],
      "name": "transferOwnership",
      "outputs": [],
      "stateMutability": "nonpayable",
      "type": "function"
    },
    {
      "inputs": [],
      "name": "withdrawTime",
      "outputs": [
        {
          "internalType": "uint256",
          "name": "",
          "type": "uint256"
        }
      ],
      "stateMutability": "view",
      "type": "function"
    },
    {
      "inputs": [],
      "name": "withdrawer",
      "outputs": [
        {
          "internalType": "address",
          "name": "",
          "type": "address"
        }
      ],
      "stateMutability": "view",
      "type": "function"
    },
    {
      "inputs": [
        {
          "internalType": "uint256",
          "name": "amount",
          "type": "uint256"
        }
      ],
      "name": "withdrawToken",
      "outputs": [],
      "stateMutability": "nonpayable",
      "type": "function"
    },
    {
      "inputs": [],
      "name": "withdrawTokenAll",
      "outputs": [],
      "stateMutability": "nonpayable",
      "type": "function"
    },
    {
      "inputs": [],
      "name": "tokenRemaining",
      "outputs": [
        {
          "internalType": "uint256",
          "name": "",
          "type": "uint256"
        }
      ],
      "stateMutability": "view",
      "type": "function"
    }
  ],
  "bytecode": "0x60806040523480156200001157600080fd5b50604051620010d2380380620010d283398101604081905262000034916200036e565b6200003f33620000c8565b4281116200006a5760405162461bcd60e51b81526004016200006190620003f8565b60405180910390fd5b600180546001600160a01b0319166001600160a01b03861617905582516200009a90600490602086019062000118565b50600280546001600160a01b0319166001600160a01b03939093169290921790915560035550620004899050565b600080546001600160a01b038381166001600160a01b0319831681178455604051919092169283917f8be0079c531659141344cd1fd0a4f28419497f9722a3daafe3b4186f6b6457e09190a35050565b828054620001269062000458565b90600052602060002090601f0160209004810192826200014a576000855562000195565b82601f106200016557805160ff191683800117855562000195565b8280016001018555821562000195579182015b828111156200019557825182559160200191906001019062000178565b50620001a3929150620001a7565b5090565b5b80821115620001a35760008155600101620001a8565b60006001600160a01b0382165b92915050565b6000620001cb82620001be565b620001e981620001d1565b8114620001f557600080fd5b50565b8051620001cb81620001de565b634e487b7160e01b600052604160045260246000fd5b601f19601f83011681018181106001600160401b038211171562000243576200024362000205565b6040525050565b60006200025660405190565b90506200026482826200021b565b919050565b60006001600160401b0382111562000285576200028562000205565b601f19601f83011660200192915050565b60005b83811015620002b357818101518382015260200162000299565b83811115620002c3576000848401525b50505050565b6000620002e0620002da8462000269565b6200024a565b905082815260208101848484011115620002fd57620002fd600080fd5b6200030a84828562000296565b509392505050565b600082601f830112620003285762000328600080fd5b81516200033a848260208601620002c9565b949350505050565b620001e981620001be565b8051620001cb8162000342565b80620001e9565b8051620001cb816200035a565b60008060008060808587031215620003895762000389600080fd5b6000620003978787620001f8565b94505060208501516001600160401b03811115620003b857620003b8600080fd5b620003c68782880162000312565b9350506040620003d9878288016200034d565b9250506060620003ec8782880162000361565b91505092959194509250565b60208082528101620001cb81602581527f77697468647261772074696d652073686f756c64206265206d6f7265207468616020820152646e206e6f7760d81b604082015260600190565b634e487b7160e01b600052602260045260246000fd5b6002810460018216806200046d57607f821691505b6020821081141562000483576200048362000442565b50919050565b610c3980620004996000396000f3fe608060405234801561001057600080fd5b506004361061009e5760003560e01c80637fc0254d116100665780637fc0254d146100fc5780638da5cb5b14610104578063cdc184241461011e578063f2fde38b14610131578063fc0c546a1461014457600080fd5b806306fdde03146100a357806345cb3dde146100c157806350baa622146100d757806368646cf0146100ec578063715018a6146100f4575b600080fd5b6100ab610164565b6040516100b891906107b8565b60405180910390f35b6100ca60035481565b6040516100b891906107d1565b6100ea6100e53660046107fd565b6101f2565b005b6100ca61032a565b6100ea6103a1565b6100ea6103d7565b6000546001600160a01b03165b6040516100b89190610838565b600254610111906001600160a01b031681565b6100ea61013f36600461085a565b6104af565b600154610157906001600160a01b031681565b6040516100b8919061089a565b60048054610171906108be565b80601f016020809104026020016040519081016040528092919081815260200182805461019d906108be565b80156101ea5780601f106101bf576101008083540402835291602001916101ea565b820191906000526020600020905b8154815290600101906020018083116101cd57829003601f168201915b505050505081565b6001546040516370a0823160e01b81526001600160a01b03909116906370a0823190610222903090600401610838565b602060405180830381865afa15801561023f573d6000803e3d6000fd5b505050506040513d601f19601f8201168201806040525081019061026391906108f6565b81101561028b5760405162461bcd60e51b815260040161028290610958565b60405180910390fd5b6002546001600160a01b031633146102b55760405162461bcd60e51b815260040161028290610998565b60035442116102d65760405162461bcd60e51b8152600401610282906109cb565b6001546102ee906001600160a01b031630338461050b565b7fa4fa6d4c08e67b66804f329195ed12feecfe9057e79e17edf30ff90f6cf37d8f428260405161031f9291906109db565b60405180910390a150565b6001546040516370a0823160e01b81526000916001600160a01b0316906370a082319061035b903090600401610838565b602060405180830381865afa158015610378573d6000803e3d6000fd5b505050506040513d601f19601f8201168201806040525081019061039c91906108f6565b905090565b6000546001600160a01b031633146103cb5760405162461bcd60e51b815260040161028290610a28565b6103d56000610569565b565b6002546001600160a01b031633146104015760405162461bcd60e51b815260040161028290610998565b60035442116104225760405162461bcd60e51b8152600401610282906109cb565b6001546040516370a0823160e01b81526000916001600160a01b0316906370a0823190610453903090600401610838565b602060405180830381865afa158015610470573d6000803e3d6000fd5b505050506040513d601f19601f8201168201806040525081019061049491906108f6565b6001549091506102ee906001600160a01b031630338461050b565b6000546001600160a01b031633146104d95760405162461bcd60e51b815260040161028290610a28565b6001600160a01b0381166104ff5760405162461bcd60e51b815260040161028290610a7b565b61050881610569565b50565b610563846323b872dd60e01b85858560405160240161052c93929190610a8b565b60408051601f198184030181529190526020810180516001600160e01b03166001600160e01b0319909316929092179091526105b9565b50505050565b600080546001600160a01b038381166001600160a01b0319831681178455604051919092169283917f8be0079c531659141344cd1fd0a4f28419497f9722a3daafe3b4186f6b6457e09190a35050565b600061060e826040518060400160405280602081526020017f5361666545524332303a206c6f772d6c6576656c2063616c6c206661696c6564815250856001600160a01b031661064d9092919063ffffffff16565b805190915015610648578080602001905181019061062c9190610ac6565b6106485760405162461bcd60e51b815260040161028290610b2e565b505050565b606061065c8484600085610666565b90505b9392505050565b6060824710156106885760405162461bcd60e51b815260040161028290610b81565b843b6106a65760405162461bcd60e51b815260040161028290610bc5565b600080866001600160a01b031685876040516106c29190610bf7565b60006040518083038185875af1925050503d80600081146106ff576040519150601f19603f3d011682016040523d82523d6000602084013e610704565b606091505b5091509150610714828286610721565b925050505b949350505050565b6060831561073057508161065f565b8251156107405782518084602001fd5b8160405162461bcd60e51b815260040161028291906107b8565b60005b8381101561077557818101518382015260200161075d565b838111156105635750506000910152565b6000610790825190565b8084526020840193506107a781856020860161075a565b601f01601f19169290920192915050565b6020808252810161065f8184610786565b805b82525050565b602081016107df82846107c9565b92915050565b805b811461050857600080fd5b80356107df816107e5565b60006020828403121561081257610812600080fd5b600061071984846107f2565b60006001600160a01b0382166107df565b6107cb8161081e565b602081016107df828461082f565b6107e78161081e565b80356107df81610846565b60006020828403121561086f5761086f600080fd5b6000610719848461084f565b60006107df8261081e565b60006107df8261087b565b6107cb81610886565b602081016107df8284610891565b634e487b7160e01b600052602260045260246000fd5b6002810460018216806108d257607f821691505b602082108114156108e5576108e56108a8565b50919050565b80516107df816107e5565b60006020828403121561090b5761090b600080fd5b600061071984846108eb565b602181526000602082017f576974686472617720616d6f756e74206973206578636565642062616c616e638152606560f81b602082015291505b5060400190565b602080825281016107df81610917565b60168152600060208201752cb7ba9030b932903737ba103bb4ba34323930bbb2b960511b815291505b5060200190565b602080825281016107df81610968565b600c81526000602082016b139bdd081d1a5b59481e595d60a21b81529150610991565b602080825281016107df816109a8565b604081016109e982856107c9565b61065f60208301846107c9565b60208082527f4f776e61626c653a2063616c6c6572206973206e6f7420746865206f776e657291019081526000610991565b602080825281016107df816109f6565b602681526000602082017f4f776e61626c653a206e6577206f776e657220697320746865207a65726f206181526564647265737360d01b60208201529150610951565b602080825281016107df81610a38565b60608101610a99828661082f565b610aa6602083018561082f565b61071960408301846107c9565b8015156107e7565b80516107df81610ab3565b600060208284031215610adb57610adb600080fd5b60006107198484610abb565b602a81526000602082017f5361666545524332303a204552433230206f7065726174696f6e20646964206e8152691bdd081cdd58d8d9595960b21b60208201529150610951565b602080825281016107df81610ae7565b602681526000602082017f416464726573733a20696e73756666696369656e742062616c616e636520666f8152651c8818d85b1b60d21b60208201529150610951565b602080825281016107df81610b3e565b601d81526000602082017f416464726573733a2063616c6c20746f206e6f6e2d636f6e747261637400000081529150610991565b602080825281016107df81610b91565b6000610bdf825190565b610bed81856020860161075a565b9290920192915050565b600061065f8284610bd556fea264697066735822122076fbaa5d11aa46d335c7b1ca77a13b6b0e2e18a54e20cd86c89476f66422758464736f6c634300080b0033",
  "immutableReferences": {},
  "source": "pragma solidity ^0.8.0;\n\nimport \"@openzeppelin/contracts/access/Ownable.sol\";\nimport \"@openzeppelin/contracts/security/ReentrancyGuard.sol\";\nimport \"@openzeppelin/contracts/utils/math/SafeMath.sol\";\nimport \"@openzeppelin/contracts/token/ERC20/utils/SafeERC20.sol\";\nimport \"@openzeppelin/contracts/token/ERC20/ERC20.sol\";\n\ncontract TokenLocker is Ownable {\n    using SafeMath for uint256;\n    using SafeERC20 for ERC20;\n\n    ERC20 public token;\n    address public withdrawer;\n    uint256 public withdrawTime;\n    string public name;\n\n    event withdrawTokenEvent(uint256 timestamp, uint256 amount);\n\n    constructor(\n        ERC20 _token,\n        string memory _name,\n        address _withdrawer, \n        uint256 _withdrawTime\n    ){\n        require(_withdrawTime > block.timestamp, \"withdraw time should be more than now\");\n\n        token = _token;\n        name = _name;\n        withdrawer = _withdrawer;\n        withdrawTime = _withdrawTime;\n    }\n\n    function withdrawToken(uint256 amount) public{\n        require(amount >= token.balanceOf(address(this)), \"Withdraw amount is exceed balance\");\n        require(msg.sender == withdrawer, \"You are not withdrawer\");\n        require(block.timestamp > withdrawTime, \"Not time yet\");\n        token.safeTransferFrom(\n                address(this),\n                msg.sender,\n                amount\n            );\n            emit withdrawTokenEvent(block.timestamp, amount);\n    }\n\n    function withdrawTokenAll() public{\n        require(msg.sender == withdrawer, \"You are not withdrawer\");\n        require(block.timestamp > withdrawTime, \"Not time yet\");\n        uint256 amount = token.balanceOf(address(this));\n        token.safeTransferFrom(\n                address(this),\n                msg.sender,\n                amount\n            );\n        emit withdrawTokenEvent(block.timestamp, amount);\n    }\n\n    function tokenRemaining() public view returns(uint256){\n        return token.balanceOf(address(this));\n    }\n\n}",
  "sourcePath": "/Users/jarupaksrisuchat/Documents/github/kubpad/contracts/TokenLocker.sol",
  "compiler": {
    "name": "solc",
    "version": "0.8.11+commit.d7f03943.Emscripten.clang"
  },
  "schemaVersion": "3.4.3",
  "updatedAt": "2022-02-09T18:06:36.000Z",
  "devdoc": {
    "kind": "dev",
    "methods": {
      "owner()": {
        "details": "Returns the address of the current owner."
      },
      "renounceOwnership()": {
        "details": "Leaves the contract without owner. It will not be possible to call `onlyOwner` functions anymore. Can only be called by the current owner. NOTE: Renouncing ownership will leave the contract without an owner, thereby removing any functionality that is only available to the owner."
      },
      "transferOwnership(address)": {
        "details": "Transfers ownership of the contract to a new account (`newOwner`). Can only be called by the current owner."
      }
    },
    "version": 1
  },
  "userdoc": {
    "kind": "user",
    "methods": {},
    "version": 1
  }
}