{
  "contractName": "TokenLockerFactory",
  "abi": [
    {
      "inputs": [
        {
          "internalType": "uint256",
          "name": "_fee",
          "type": "uint256"
        },
        {
          "internalType": "address payable",
          "name": "_feeCollector",
          "type": "address"
        }
      ],
      "stateMutability": "nonpayable",
      "type": "constructor"
    },
    {
      "anonymous": false,
      "inputs": [
        {
          "indexed": false,
          "internalType": "uint256",
          "name": "lockerId",
          "type": "uint256"
        },
        {
          "indexed": true,
          "internalType": "address",
          "name": "lockerAddress",
          "type": "address"
        },
        {
          "indexed": false,
          "internalType": "address",
          "name": "tokenAddress",
          "type": "address"
        }
      ],
      "name": "LockerCreated",
      "type": "event"
    },
    {
      "anonymous": false,
      "inputs": [
        {
          "indexed": true,
          "internalType": "address",
          "name": "previousOwner",
          "type": "address"
        },
        {
          "indexed": true,
          "internalType": "address",
          "name": "newOwner",
          "type": "address"
        }
      ],
      "name": "OwnershipTransferred",
      "type": "event"
    },
    {
      "inputs": [],
      "name": "fee",
      "outputs": [
        {
          "internalType": "uint256",
          "name": "",
          "type": "uint256"
        }
      ],
      "stateMutability": "view",
      "type": "function",
      "constant": true
    },
    {
      "inputs": [],
      "name": "feeCollector",
      "outputs": [
        {
          "internalType": "address payable",
          "name": "",
          "type": "address"
        }
      ],
      "stateMutability": "view",
      "type": "function",
      "constant": true
    },
    {
      "inputs": [],
      "name": "lockerCount",
      "outputs": [
        {
          "internalType": "uint256",
          "name": "",
          "type": "uint256"
        }
      ],
      "stateMutability": "view",
      "type": "function",
      "constant": true
    },
    {
      "inputs": [],
      "name": "owner",
      "outputs": [
        {
          "internalType": "address",
          "name": "",
          "type": "address"
        }
      ],
      "stateMutability": "view",
      "type": "function",
      "constant": true
    },
    {
      "inputs": [],
      "name": "renounceOwnership",
      "outputs": [],
      "stateMutability": "nonpayable",
      "type": "function"
    },
    {
      "inputs": [
        {
          "internalType": "address",
          "name": "newOwner",
          "type": "address"
        }
      ],
      "name": "transferOwnership",
      "outputs": [],
      "stateMutability": "nonpayable",
      "type": "function"
    },
    {
      "inputs": [
        {
          "internalType": "contract ERC20",
          "name": "_tokenAddress",
          "type": "address"
        },
        {
          "internalType": "string",
          "name": "_name",
          "type": "string"
        },
        {
          "internalType": "uint256",
          "name": "_lockAmount",
          "type": "uint256"
        },
        {
          "internalType": "address",
          "name": "_withdrawer",
          "type": "address"
        },
        {
          "internalType": "uint256",
          "name": "_withdrawTime",
          "type": "uint256"
        }
      ],
      "name": "createLocker",
      "outputs": [
        {
          "internalType": "address",
          "name": "",
          "type": "address"
        }
      ],
      "stateMutability": "payable",
      "type": "function",
      "payable": true
    },
    {
      "inputs": [
        {
          "internalType": "uint256",
          "name": "amount",
          "type": "uint256"
        }
      ],
      "name": "setFee",
      "outputs": [],
      "stateMutability": "nonpayable",
      "type": "function"
    }
  ],
  "bytecode": "0x60806040526000600155670de0b6b3a76400006002553480156200002257600080fd5b5060405162001d0238038062001d02833981016040819052620000459162000119565b62000050336200007b565b600291909155600380546001600160a01b0319166001600160a01b039092169190911790556200015c565b600080546001600160a01b038381166001600160a01b0319831681178455604051919092169283917f8be0079c531659141344cd1fd0a4f28419497f9722a3daafe3b4186f6b6457e09190a35050565b805b8114620000d957600080fd5b50565b8051620000e981620000cb565b92915050565b60006001600160a01b038216620000e9565b620000cd81620000ef565b8051620000e98162000101565b60008060408385031215620001315762000131600080fd5b60006200013f8585620000dc565b925050602062000152858286016200010c565b9150509250929050565b611b96806200016c6000396000f3fe608060405260043610620000855760003560e01c8063c415b95c1162000054578063c415b95c1462000118578063ccd96eb6146200013a578063ddca3f431462000161578063f2fde38b146200017957600080fd5b806303f3dbac146200008a57806369fe0e2d14620000b9578063715018a614620000e05780638da5cb5b14620000f8575b600080fd5b620000a16200009b366004620007eb565b6200019e565b604051620000b091906200089d565b60405180910390f35b348015620000c657600080fd5b50620000de620000d8366004620008ad565b62000315565b005b348015620000ed57600080fd5b50620000de62000350565b3480156200010557600080fd5b506000546001600160a01b0316620000a1565b3480156200012557600080fd5b50600354620000a1906001600160a01b031681565b3480156200014757600080fd5b506200015260015481565b604051620000b09190620008d9565b3480156200016e57600080fd5b506200015260025481565b3480156200018657600080fd5b50620000de62000198366004620008e9565b6200038b565b60006002543414620001af57600080fd5b600086868585604051620001c3906200065d565b620001d29493929190620009a0565b604051809103906000f080158015620001ef573d6000803e3d6000fd5b5060405163f2fde38b60e01b81529091506001600160a01b0382169063f2fde38b90620002219033906004016200089d565b600060405180830381600087803b1580156200023c57600080fd5b505af115801562000251573d6000803e3d6000fd5b506200026d925050506001600160a01b038816338388620003ef565b806001600160a01b03167f4fd7b129e67605fe15d5e55ba0e969876d1549f11dc6aa106a702d51b27f5f4d60015489604051620002ac929190620009e4565b60405180910390a260018054906000620002c68362000a19565b90915550506003546002546040516001600160a01b039092169181156108fc0291906000818181858888f1935050505015801562000308573d6000803e3d6000fd5b5090505b95945050505050565b6000546001600160a01b031633146200034b5760405162461bcd60e51b8152600401620003429062000a6b565b60405180910390fd5b600255565b6000546001600160a01b031633146200037d5760405162461bcd60e51b8152600401620003429062000a6b565b62000389600062000451565b565b6000546001600160a01b03163314620003b85760405162461bcd60e51b8152600401620003429062000a6b565b6001600160a01b038116620003e15760405162461bcd60e51b8152600401620003429062000ac3565b620003ec8162000451565b50565b6200044b846323b872dd60e01b858585604051602401620004139392919062000ad5565b60408051601f198184030181529190526020810180516001600160e01b03166001600160e01b031990931692909217909152620004a1565b50505050565b600080546001600160a01b038381166001600160a01b0319831681178455604051919092169283917f8be0079c531659141344cd1fd0a4f28419497f9722a3daafe3b4186f6b6457e09190a35050565b6000620004f8826040518060400160405280602081526020017f5361666545524332303a206c6f772d6c6576656c2063616c6c206661696c6564815250856001600160a01b03166200053d9092919063ffffffff16565b80519091501562000538578080602001905181019062000519919062000b19565b620005385760405162461bcd60e51b8152600401620003429062000b86565b505050565b60606200054e848460008562000558565b90505b9392505050565b6060824710156200057d5760405162461bcd60e51b8152600401620003429062000bdc565b843b6200059e5760405162461bcd60e51b8152600401620003429062000c23565b600080866001600160a01b03168587604051620005bc919062000c5a565b60006040518083038185875af1925050503d8060008114620005fb576040519150601f19603f3d011682016040523d82523d6000602084013e62000600565b606091505b5091509150620006128282866200061f565b925050505b949350505050565b606083156200063057508162000551565b825115620006415782518084602001fd5b8160405162461bcd60e51b815260040162000342919062000c68565b610ee58062000c7c83390190565b60006001600160a01b0382165b92915050565b600062000678826200066b565b62000696816200067e565b8114620003ec57600080fd5b803562000678816200068b565b634e487b7160e01b600052604160045260246000fd5b601f19601f830116810181811067ffffffffffffffff82111715620006ee57620006ee620006af565b6040525050565b60006200070160405190565b90506200070f8282620006c5565b919050565b600067ffffffffffffffff821115620007315762000731620006af565b601f19601f83011660200192915050565b82818337506000910152565b6000620007656200075f8462000714565b620006f5565b905082815260208101848484011115620007825762000782600080fd5b6200078f84828562000742565b509392505050565b600082601f830112620007ad57620007ad600080fd5b8135620006178482602086016200074e565b8062000696565b80356200067881620007bf565b62000696816200066b565b80356200067881620007d3565b600080600080600060a08688031215620008085762000808600080fd5b6000620008168888620006a2565b955050602086013567ffffffffffffffff811115620008385762000838600080fd5b620008468882890162000797565b94505060406200085988828901620007c6565b93505060606200086c88828901620007de565b92505060806200087f88828901620007c6565b9150509295509295909350565b62000897816200066b565b82525050565b602081016200067882846200088c565b600060208284031215620008c457620008c4600080fd5b6000620006178484620007c6565b8062000897565b60208101620006788284620008d2565b600060208284031215620009005762000900600080fd5b6000620006178484620007de565b60006001600160a01b03821662000678565b600062000678826200090e565b6000620006788262000920565b62000897816200092d565b60005b838110156200096257818101518382015260200162000948565b50506000910152565b600062000976825190565b8084526020840193506200098f81856020860162000945565b601f01601f19169290920192915050565b60808101620009b082876200093a565b8181036020830152620009c481866200096b565b9050620009d560408301856200088c565b6200030c6060830184620008d2565b60408101620009f48285620008d2565b6200055160208301846200088c565b634e487b7160e01b600052601160045260246000fd5b6000600019820362000a2f5762000a2f62000a03565b5060010190565b60208082527f4f776e61626c653a2063616c6c6572206973206e6f7420746865206f776e6572910190815260005b5060200190565b60208082528101620006788162000a36565b602681526000602082017f4f776e61626c653a206e6577206f776e657220697320746865207a65726f206181526564647265737360d01b602082015291505b5060400190565b60208082528101620006788162000a7d565b6060810162000ae582866200088c565b62000af460208301856200088c565b620006176040830184620008d2565b80151562000696565b8051620006788162000b03565b60006020828403121562000b305762000b30600080fd5b600062000617848462000b0c565b602a81526000602082017f5361666545524332303a204552433230206f7065726174696f6e20646964206e8152691bdd081cdd58d8d9595960b21b6020820152915062000abc565b60208082528101620006788162000b3e565b602681526000602082017f416464726573733a20696e73756666696369656e742062616c616e636520666f8152651c8818d85b1b60d21b6020820152915062000abc565b60208082528101620006788162000b98565b601d81526000602082017f416464726573733a2063616c6c20746f206e6f6e2d636f6e74726163740000008152915062000a64565b60208082528101620006788162000bee565b600062000c40825190565b62000c5081856020860162000945565b9290920192915050565b600062000551828462000c35565b602080825281016200055181846200096b56fe60806040523480156200001157600080fd5b5060405162000ee538038062000ee58339810160408190526200003491620002b4565b6200003f33620000c1565b4281116200006a5760405162461bcd60e51b815260040162000061906200033e565b60405180910390fd5b600180546001600160a01b0319166001600160a01b038616179055600462000093848262000485565b50600280546001600160a01b0319166001600160a01b03939093169290921790915560035550620005559050565b600080546001600160a01b038381166001600160a01b0319831681178455604051919092169283917f8be0079c531659141344cd1fd0a4f28419497f9722a3daafe3b4186f6b6457e09190a35050565b60006001600160a01b0382165b92915050565b60006200011e8262000111565b6200013c8162000124565b81146200014857600080fd5b50565b80516200011e8162000131565b634e487b7160e01b600052604160045260246000fd5b601f19601f83011681018181106001600160401b038211171562000196576200019662000158565b6040525050565b6000620001a960405190565b9050620001b782826200016e565b919050565b60006001600160401b03821115620001d857620001d862000158565b601f19601f83011660200192915050565b60005b8381101562000206578181015183820152602001620001ec565b50506000910152565b6000620002266200022084620001bc565b6200019d565b905082815260208101848484011115620002435762000243600080fd5b62000250848285620001e9565b509392505050565b600082601f8301126200026e576200026e600080fd5b8151620002808482602086016200020f565b949350505050565b6200013c8162000111565b80516200011e8162000288565b806200013c565b80516200011e81620002a0565b60008060008060808587031215620002cf57620002cf600080fd5b6000620002dd87876200014b565b94505060208501516001600160401b03811115620002fe57620002fe600080fd5b6200030c8782880162000258565b93505060406200031f8782880162000293565b92505060606200033287828801620002a7565b91505092959194509250565b602080825281016200011e81602581527f77697468647261772074696d652073686f756c64206265206d6f7265207468616020820152646e206e6f7760d81b604082015260600190565b634e487b7160e01b600052602260045260246000fd5b600281046001821680620003b357607f821691505b602082108103620003c857620003c862000388565b50919050565b60006200011e620003dc8381565b90565b620003ea83620003ce565b81546008840282811b60001990911b908116901990911617825550505050565b600062000419818484620003df565b505050565b818110156200043d57620004346000826200040a565b6001016200041e565b5050565b601f82111562000419576000818152602090206020601f850104810160208510156200046a5750805b6200047e6020601f8601048301826200041e565b5050505050565b81516001600160401b03811115620004a157620004a162000158565b620004ad82546200039e565b620004ba82828562000441565b6020601f831160018114620004f15760008415620004d85750858201515b600019600886021c19811660028602178655506200054d565b600085815260208120601f198616915b8281101562000523578885015182556020948501946001909201910162000501565b86831015620005405784890151600019601f89166008021c191682555b6001600288020188555050505b505050505050565b61098080620005656000396000f3fe608060405234801561001057600080fd5b506004361061009e5760003560e01c80637fc0254d116100665780637fc0254d146100fc5780638da5cb5b14610104578063cdc184241461011e578063f2fde38b14610131578063fc0c546a1461014457600080fd5b806306fdde03146100a357806345cb3dde146100c157806350baa622146100d757806368646cf0146100ec578063715018a6146100f4575b600080fd5b6100ab610164565b6040516100b89190610627565b60405180910390f35b6100ca60035481565b6040516100b89190610647565b6100ea6100e5366004610673565b6101f2565b005b6100ca610388565b6100ea6103ff565b6100ea610435565b6000546001600160a01b03165b6040516100b891906106b6565b600254610111906001600160a01b031681565b6100ea61013f3660046106d8565b610525565b600154610157906001600160a01b031681565b6040516100b89190610718565b600480546101719061073c565b80601f016020809104026020016040519081016040528092919081815260200182805461019d9061073c565b80156101ea5780601f106101bf576101008083540402835291602001916101ea565b820191906000526020600020905b8154815290600101906020018083116101cd57829003601f168201915b505050505081565b6001546040516370a0823160e01b81526001600160a01b03909116906370a08231906102229030906004016106b6565b602060405180830381865afa15801561023f573d6000803e3d6000fd5b505050506040513d601f19601f820116820180604052508101906102639190610773565b81101561028b5760405162461bcd60e51b8152600401610282906107d5565b60405180910390fd5b6002546001600160a01b031633146102b55760405162461bcd60e51b815260040161028290610815565b60035442116102d65760405162461bcd60e51b815260040161028290610848565b60015460405163a9059cbb60e01b81526001600160a01b039091169063a9059cbb906103089033908590600401610858565b6020604051808303816000875af1158015610327573d6000803e3d6000fd5b505050506040513d601f19601f8201168201806040525081019061034b9190610886565b507fa4fa6d4c08e67b66804f329195ed12feecfe9057e79e17edf30ff90f6cf37d8f428260405161037d9291906108a7565b60405180910390a150565b6001546040516370a0823160e01b81526000916001600160a01b0316906370a08231906103b99030906004016106b6565b602060405180830381865afa1580156103d6573d6000803e3d6000fd5b505050506040513d601f19601f820116820180604052508101906103fa9190610773565b905090565b6000546001600160a01b031633146104295760405162461bcd60e51b8152600401610282906108e7565b6104336000610581565b565b6002546001600160a01b0316331461045f5760405162461bcd60e51b815260040161028290610815565b60035442116104805760405162461bcd60e51b815260040161028290610848565b6001546040516370a0823160e01b81526000916001600160a01b0316906370a08231906104b19030906004016106b6565b602060405180830381865afa1580156104ce573d6000803e3d6000fd5b505050506040513d601f19601f820116820180604052508101906104f29190610773565b60015460405163a9059cbb60e01b81529192506001600160a01b03169063a9059cbb906103089033908590600401610858565b6000546001600160a01b0316331461054f5760405162461bcd60e51b8152600401610282906108e7565b6001600160a01b0381166105755760405162461bcd60e51b81526004016102829061093a565b61057e81610581565b50565b600080546001600160a01b038381166001600160a01b0319831681178455604051919092169283917f8be0079c531659141344cd1fd0a4f28419497f9722a3daafe3b4186f6b6457e09190a35050565b60005b838110156105ec5781810151838201526020016105d4565b50506000910152565b60006105ff825190565b8084526020840193506106168185602086016105d1565b601f01601f19169290920192915050565b6020808252810161063881846105f5565b9392505050565b805b82525050565b60208101610655828461063f565b92915050565b805b811461057e57600080fd5b80356106558161065b565b60006020828403121561068857610688600080fd5b60006106948484610668565b949350505050565b60006001600160a01b038216610655565b6106418161069c565b6020810161065582846106ad565b61065d8161069c565b8035610655816106c4565b6000602082840312156106ed576106ed600080fd5b600061069484846106cd565b60006106558261069c565b6000610655826106f9565b61064181610704565b60208101610655828461070f565b634e487b7160e01b600052602260045260246000fd5b60028104600182168061075057607f821691505b60208210810361076257610762610726565b50919050565b80516106558161065b565b60006020828403121561078857610788600080fd5b60006106948484610768565b602181526000602082017f576974686472617720616d6f756e74206973206578636565642062616c616e638152606560f81b602082015291505b5060400190565b6020808252810161065581610794565b60168152600060208201752cb7ba9030b932903737ba103bb4ba34323930bbb2b960511b815291505b5060200190565b60208082528101610655816107e5565b600c81526000602082016b139bdd081d1a5b59481e595d60a21b8152915061080e565b6020808252810161065581610825565b6040810161086682856106ad565b610638602083018461063f565b80151561065d565b805161065581610873565b60006020828403121561089b5761089b600080fd5b6000610694848461087b565b60408101610866828561063f565b60208082527f4f776e61626c653a2063616c6c6572206973206e6f7420746865206f776e65729101908152600061080e565b60208082528101610655816108b5565b602681526000602082017f4f776e61626c653a206e6577206f776e657220697320746865207a65726f206181526564647265737360d01b602082015291506107ce565b60208082528101610655816108f756fea264697066735822122006a5cae3e611837f07d36180d7a36746c94172c2d5ad27db82f2ee7d3f9e669a64736f6c63430008110033a26469706673582212202f6eb6cd7a9d75d5f91870515cad6bec10ef641494d66ac1a464b869f401af8164736f6c63430008110033",
  "immutableReferences": {},
  "source": "pragma solidity ^0.8.0;\n\nimport \"@openzeppelin/contracts/access/Ownable.sol\";\nimport \"@openzeppelin/contracts/security/ReentrancyGuard.sol\";\nimport \"@openzeppelin/contracts/utils/math/SafeMath.sol\";\nimport \"@openzeppelin/contracts/token/ERC20/utils/SafeERC20.sol\";\nimport \"@openzeppelin/contracts/token/ERC20/ERC20.sol\";\nimport \"./TokenLocker.sol\";\n\ncontract TokenLockerFactory is Ownable {\n    using SafeMath for uint256;\n    using SafeERC20 for ERC20;\n\n    uint256 public lockerCount = 0;\n    uint256 public fee = 1 ether;\n\n    address payable public feeCollector;\n\n    struct lockerInfo {\n        uint256 lockerId;\n        address tokenAddress;\n        address creator;\n        uint256 ramaining;\n        address withdrawer;\n        uint256 withdrawTime;\n    }\n\n    event LockerCreated(\n        uint256 lockerId,\n        address indexed lockerAddress,\n        address tokenAddress\n    );\n\n    constructor(uint256 _fee, address payable _feeCollector) {\n        fee = _fee;\n        feeCollector = _feeCollector;\n    }\n\n    function createLocker(\n        ERC20 _tokenAddress,\n        string memory _name,\n        uint256 _lockAmount,\n        address _withdrawer,\n        uint256 _withdrawTime\n    ) public payable returns (address) {\n        require(msg.value == fee);\n\n        TokenLocker tokenLocker = new TokenLocker(\n            _tokenAddress,\n            _name,\n            _withdrawer,\n            _withdrawTime\n        );\n        tokenLocker.transferOwnership(msg.sender);\n\n        _tokenAddress.safeTransferFrom(\n            msg.sender,\n            address(tokenLocker),\n            _lockAmount\n        );\n\n        emit LockerCreated(\n            lockerCount,\n            address(tokenLocker),\n            address(_tokenAddress)\n        );\n        lockerCount++;\n        feeCollector.transfer(fee);\n        return address(tokenLocker);\n    }\n\n    // function withdrawFee() public onlyOwner {\n    //     (bool success, ) = msg.sender.call{value: address(this).balance}(\"\");\n    //     require(success, \"Transfer failed.\");\n    // }\n\n    function setFee(uint256 amount) public onlyOwner {\n        fee = amount;\n    }\n}\n",
  "sourcePath": "/Users/jarupaksrisuchat/Documents/github/ppenter/fontpad/contracts/TokenLockerFactory.sol",
  "compiler": {
    "name": "solc",
    "version": "0.8.17+commit.8df45f5f.Emscripten.clang"
  },
  "schemaVersion": "3.4.10",
  "updatedAt": "2022-11-18T03:29:38.018Z",
  "networkType": "ethereum",
  "devdoc": {
    "kind": "dev",
    "methods": {
      "owner()": {
        "details": "Returns the address of the current owner."
      },
      "renounceOwnership()": {
        "details": "Leaves the contract without owner. It will not be possible to call `onlyOwner` functions anymore. Can only be called by the current owner. NOTE: Renouncing ownership will leave the contract without an owner, thereby removing any functionality that is only available to the owner."
      },
      "transferOwnership(address)": {
        "details": "Transfers ownership of the contract to a new account (`newOwner`). Can only be called by the current owner."
      }
    },
    "version": 1
  },
  "userdoc": {
    "kind": "user",
    "methods": {},
    "version": 1
  }
}